:020000042000DA
:100000006F00001CBA060020BA060020640700201A
:10001000BA060020BA060020BA0600207E0D002095
:10002000BA060020BA060020BA060020BA06002050
:10003000BA060020BA060020BA060020BA06002040
:10004000BA060020BA060020BA060020BA06002030
:10005000BA060020000000000000000000000000C0
:100060000000000000000000000000000000000090
:100070000000000000000000000000000000000080
:100080000000000000000000000000000000000070
:100090000000000000000000000000000000000060
:1000A0000000000000000000000000000000000050
:1000B0000000000000000000000000000000000040
:1000C000BA06002000000000000000000000000050
:1000D0000000000000000000000000000000000020
:1000E0000000000000000000000000000000000010
:1000F000BA060020BA060020BA060020BA06002080
:10010000BA060020BA060020BA060020BA0600206F
:10011000BA060020BA060020BA060020BA0600205F
:10012000BA060020BA060020BA060020BA0600204F
:1001300000000000000000000000000000000000BF
:1001400000000000000000000000000000000000AF
:10015000000000000000000000000000000000009F
:10016000000000000000000000000000000000008F
:10017000000000000000000000000000000000007F
:10018000000000000000000000000000000000006F
:10019000000000000000000000000000000000005F
:1001A000000000000000000000000000000000004F
:1001B000000000000000000000000000000000003F
:1001C00073700430971100709381C18517E200703D
:1001D0001302C2D4170104701301C1E2930200207C
:1001E00073A0027D970200009382C2E17390723087
:1001F00097020000938202457390C27E73E0C07E36
:100200009702000093820210739052309302F00321
:1002100073B0523073E05130996273B0023089622A
:1002200073A0023073F00232170500001305851128
:1002300097050000938505116300B50217B6050008
:100240001306C60263FAC5008322050023A05500E9
:1002500011059105E3EAC5FE17B505001305050173
:1002600097050070938505DA6300B50217E6007004
:100270001306C6CA63FAC5008322050023A05500F1
:1002800011059105E3EAC5FE17E50070130505C9E0
:1002900097E50070938585236377B50023200500DB
:1002A0001105E36DB5FEEF10601017650000130532
:1002B000E5E2EF506017EF50505CEF10A01497028A
:1002C000000093822230739052309302F00373B097
:1002D000523073E05130014581459D20EF10801868
:1002E00001A0130000001300000013000000130021
:1002F00000001300000013000000130000000100C4
:0803000073005010F5BF00006E
:10034000411106C6EF001071EF20F00A15E937C51C
:10035000002013058585EF20607AEF20300EB7C5A9
:1003600000203715002093858586014785461306B2
:1003700000201305858AEF20B009EF20500C01A062
:10038000AA8537C5002013054584EF202077C5BF17
:10039000411122C417E400701304440B06C6A2875F
:1003A00097E60070938686127D5798C3A107E39E57
:1003B000D7FE814517C50000130505C7EFA0506C97
:1003C00093173500A2979C439305106017C5000052
:1003D000130585C51CC097E7007023AB0706EFA087
:1003E000306A93173500A2979C439305902017C558
:1003F0000000130565C31CC497E7007023AE070413
:10040000EFA0106893173500A2979C43B24017E7FE
:100410000070232707041CC822444101828035C98B
:10042000ADC901114AC837E900908327C9F106CE4A
:10043000BDE326CAB7E4009083C784F1B9EF22CCAC
:100440004EC6232EA9F0238CB4F001449309C002B8
:1004500031A89C4385C3829705049377F40F1DE16F
:1004600003C784F163F0E7020325C9F17F1534C5A2
:100470005C45E5F36244D244B2490945F240424941
:10048000056182806244F240D244B249424905612A
:1004900082800D4582807D55D5B7D2447D55F9BF08
:1004A000B7E7009003C787F1AA87637BE50037E7CA
:1004B00000900325C7F11307C0027F95E7C482802F
:1004C0000145828009C55C45DC4381C782870D45B3
:1004D00082801D45828009C55C45DC4F81C78287CB
:1004E0000D4582801D45828009C55C459C5381C7AE
:1004F00082870D4582801D45828009C55C45DC539D
:1005000081C782870D4582801D4582801DC50947B0
:100510006301E6020D476305E60019C63A8582804D
:100520005C459C5F89C782875C45DC5FEDFF1D45AC
:1005300082805C45DC5BE5DF82870945828009C5F6
:100540005C45FC4381C782870D4582801D458280C2
:1005500009C55C45FC4781C782870D4582801D45E2
:10056000828009C55C45BC4B81C782870D4582806E
:100570001D45828019C55C45FC4F91C762066186A6
:1005800082870D4582801D45828009C55C45BC532C
:1005900081C782870D4582801D45828009C55C45E3
:1005A000BC5F81C782870D4582801D45828009C559
:1005B0005C45FC5F81C782870D4582801D45828036
:1005C000731191345D7106C012C216C41AC61EC8DA
:1005D0002ACA2ECC32CE36D03AD23ED442DC46DEC7
:1005E000F2C0F6C2FAC4FEC673D0E57E7350F67E42
:1005F00073D0B67E732520348A85EF00505BD252CB
:100600007390427CC25273901234B252739022346F
:1006100082401242A2423243C2435245E2457246F0
:1006200082561257A2576258F258064E964E264FDF
:10063000B64F6161731191347300203001000000E6
:10064000731191345D7106C012C216C41AC61EC859
:100650002ACA2ECC32CE36D03AD23ED442DC46DE46
:10066000F2C0F6C2FAC4FEC673D0E57E7350F67EC1
:1006700073D0B67EF390D07E73700430D2527390F4
:10068000427CC25273901234B25273902234824030
:100690001242A2423243C2435245E245724682565A
:1006A0001257A2576258F258064E964E264FB64F32
:1006B0006161731191347300203001A013000000B8
:1006C00097020470938202947390023417E10070D1
:1006D0000321018B02418242739012341260A260A6
:1006E0003261C2615262E262726382731274A274F6
:1006F0003275C2755276E276727786671668A6689A
:100700003669C669566AE66A766B867B167CA67C75
:10071000367DC67D567EE67E767F8A6F0961D6522B
:10072000739002309240A2423243C2435244E244A8
:10073000724582551256A2563257C2575258E25845
:1007400072598649164AA64A364BC64B564CE64C59
:10075000764D865D165EA65E365FC65F1301810725
:1007600073002030130181F806C216C41AC61EC8D1
:1007700022CA26CC2ACE2ED032D236D43AD63ED871
:1007800042DA46DC4ADECEC0D2C2D6C4DAC6DEC801
:10079000E2CAE6CCEACEEED0F2D2F6D4FAD6FED851
:1007A000F322003096DA197102E206E40AE60EE856
:1007B00012EA16EC1AEE1EF022F226F42AF62EF8B1
:1007C00032FA36FC3AFEBEE0C2E2C6E4CAE6CEE841
:1007D000D2EAD6ECDAEEDEF0E2F2E6F4EAF6EEF891
:1007E000F2FAF6FCFAFE7EE197D2007083A242791B
:1007F00023A02200F322103416C0EF00005297D23B
:10080000007083A2E27703A1020082427390123447
:100810001260A2603261C2615262E26272638273EC
:100820001274A2743275C2755276E2767277866758
:100830001668A6683669C669566AE66A766B867B6C
:10084000167CA67C367DC67D567EE67E767F8A6FD8
:100850000961D652739002309240A2423243C243A1
:100860005244E244724582551256A2563257C2573C
:100870005258E25872598649164AA64A364BC64B18
:10088000564CE64C764D865D165EA65E365FC65FBC
:10089000130181077300203001000145828037B5C4
:1008A00000201305C5528280011106CECD3FEF0016
:1008B000D03BEF2040342DE14800EF00303CEF20EA
:1008C000803341E5924599C537B50020130585571A
:1008D000EF20C02237B5002013054558EF20002235
:1008E00037E50090130505F2EF20804DAA8531E130
:1008F000B7B50020371500209385055C0147914668
:1009000013060040130585BCEF2080300145EF2021
:10091000A032F24005618280AA8537B50020130518
:100920004554EF20A01D0145EF200031F240056144
:10093000828037B500201305C559EF20201C0145E2
:10094000EF20802FF24005618280B7B70020AA8592
:1009500013850756EF20801A0145EF20E02DF24065
:1009600005618280B7E7009003A507F219C16F20E7
:10097000204B8280130101BC232C814237E400907C
:10098000032544F2232E1142353E6317050E03253D
:1009900044F29136AA8571E1032544F28145094765
:1009A0009306200301468936AA85631C050E03259C
:1009B00044F2814509479306200301463D3EAA853E
:1009C000631C050C032544F28567231601029387F7
:1009D00017C00548094785455410314602D42312F3
:1009E000F102231301032306E1024536AA856319A8
:1009F000050C032544F2930510039136AA85631B69
:100A0000050E032544F29305000C05469136AA8590
:100A1000631C050E032544F2A936AA8571E10D4633
:100A2000032544F2B285DD34AA856319050E054617
:100A3000B7170020032544F2B28593864796B93E46
:100A4000AA856307050E37B5002013054575EF200D
:100A5000E00A0145EF20401EADA837B50020130580
:100A6000055FEF20A009032481438320C143014592
:100A7000130101446F20401CAA8537B500201305DF
:100A8000055DEF20A007032481438320C143014576
:100A9000130101446F20401A37B500201305456546
:100AA000C9B737B5002013054562EF2020050324A0
:100AB00081438320C1430145130101446F20C017C6
:100AC00037B5002013054568EF2040030145EF20AE
:100AD000A0168320C1430324814313010144828073
:100AE00037B5002013050570EF2040010145EF20C8
:100AF000A014C5B737B500201305056BEF20000023
:100B00000145EF206013F1B737B500201305856D5F
:100B1000EF10D07E0145EF20201265BF37B50020D1
:100B200013058572EF10907D0145EF20E01055B759
:100B300037B5002013050578EF10507C2311010212
:100B4000B7E7009003A507F2FD55EF20E02A6DF905
:100B5000032544F293062102130600040C18193CE5
:100B600001E58357210299EB0546B71700200325BD
:100B700044F2B285938647961534D9B7130301031F
:100B800081450315A300831743000317230083182F
:100B9000830003186300831603000326C3002AC0E2
:100BA00037B500201305057C1ACE2ECCEF1010753A
:100BB000E245724385059397050103572102C183DE
:100BC0004103E3E0E7FC4DB74111014506C6EFF0F4
:100BD0003F8D37E700902322A7F21DC18545C13A1A
:100BE000AA8501E5B240410171B337C50020130564
:100BF0004582EF10B070B240014541016F20C00343
:100C000037C5002013050580EF10506FB240014535
:100C100041016F206002B7070090411103A74722EE
:100C2000B706009002C6FD5783C606226309F70087
:100C3000B7070218A385D7000F00F00F01A0B70770
:100C40000218A385D7000F00F00FB24799E773F0A1
:100C5000008173005010B247FDDB410182804111D9
:100C60001167B717002022C426C206C613070788DB
:100C7000938767C12A842322C5FAAE84232EE5FE1A
:100C80002326F5F8130600081305C5F08145EF503B
:100C90002048130584F0232494F0B2402244924467
:100CA000410182803706009083470622B70602186A
:100CB000A385F6000F00F00F370700908327472227
:100CC00085072322F72205476383E700828003C755
:100CD000B60083470622E38BE7FEA385F6000F00EC
:100CE000F00F01A0370700908327472281EFB70755
:100CF000009003C70722B7070218A385E7000F007B
:100D0000F00F01A0FD172322F72299E7B707021879
:100D1000A38507000F00F00F82804111B7070090F4
:100D200003C7072206C6B7070218A385E7000F000E
:100D3000F00FF32740F19DE3371703188327C7FF10
:100D4000F99B232EF7FEEF205045B7070218A38525
:100D500007000F00F00FB2404101828037170318DF
:100D60008A07BA97014798C3EF203043B7070218A4
:100D7000A38507000F00F00FB240410182800111EE
:100D8000B707009003C7072206CEB7070218A3854E
:100D9000E7000F00F00F612BB787EB519387F751F6
:100DA000B337F5023707031895831107B706031801
:100DB000104332C2904232C418433AC612463247F8
:100DC0006304E600944236C4B246A2453386B700B7
:100DD0003337F600369763FAE606F32740F1A1C7EA
:100DE000B75603188E07B697FD5694C393864700EF
:100DF00098C290C3EF20E07B11CDF32740F19DEF27
:100E0000371703188327C7FF93E71700232EF7FE32
:100E10000F00F00FB7070218A38507000F00F00FAF
:100E2000F24005618280B7070318A107FD5694C3FD
:100E3000B7060318B10698C290C36DBF37170318E1
:100E40008A07BA97054798C3E1B76314D700E3E66A
:100E5000C5F881463706031814C21307460014C3A9
:100E600014C2732740F119EB930686007D5690C299
:100E700037060318310618C29CC2ADBF3756031897
:100E80000E0732977D5610C31306470014C21CC3C9
:100E900095B7011106CE6129B787EB519387F751BA
:100EA000B337F5023707031895831107B706031800
:100EB000104332C2904232C418433AC612463247F7
:100EC0006304E600944236C4B24622473306F70074
:100ED0003337E6003697F32640F163950618B706D8
:100EE0000318A106FD558CC2B7050318B10598C1BA
:100EF00090C2371702188346E70193F6E60F230FD7
:100F0000D7008346E70193F6F60F230FD700B70605
:100F1000021803C7060005833D8BD44205C7D5825E
:100F2000BD8A3686636FD714B716021803C7F60159
:100F30003317C7001377F70F3357C7401377F70FEF
:100F4000A38FE600B716021803C7D6011367170070
:100F5000A38EE60037060318814614C21307460025
:100F600014C314C2732740F17DE3930686007D56B7
:100F700090C237060318310618C29CC237170218F0
:100F80008347D70193F7E70FA30EF700370702183F
:100F9000834707008583BD8B584385C755833D8BA9
:100FA000BA8663EEE70C371702188347F701B39749
:100FB000D70093F7F70FB3D7D74093F7F70FA30FE7
:100FC000F700B717021803C7E7011377E70F238F5E
:100FD000E70003C7E7011377F70F238FE70003C785
:100FE000D70113671700A38EE70003C7E700137745
:100FF000E70F2387E70003C7E7001367170023877E
:10100000E70037070218834707008583BD8B5843E5
:1010100085C755833D8BBA8663E1E706371702180B
:101020008347F700B397D70093F7F70FB3D7D740AD
:1010300093F7F70FA307F700371702188347D70076
:1010400093E71700A306F700F24005618280375648
:1010500003180E0732977D5610C31306470014C2BB
:101060001CC329BFB75503188E06AE96FD558CC21A
:101070009385460098C190C2ADBDBE8645B7BE8679
:101080001DB73A8655B501113707021806CE22CC96
:1010900026CA83470700584385835583BD8B137643
:1010A000F700BE866373F600B2868547B397D70014
:1010B000FD172147158F13F6F70F9D461377F70F8E
:1010C000B704009063F3C600B6878546B396E60082
:1010D00093F7F70FFD16B397E700D58F2380F4221F
:1010E0003707021883470700584385835583BD8B14
:1010F0009375F700BE8637E6009063F3F500AE8681
:101100008547B397D700FD1793F6F70F1D47637315
:10111000D700BA872304F6F2737004309D3BB7E71B
:101120000090054737040090238CE7F22322042225
:10113000EFF00FD9EF2070060327442202C6FD57B7
:10114000630BF70003C70422B7070218A385E70063
:101150000F00F00F01A003C70422B7070218A385F0
:10116000E7000F00F00FB24799E773F000817300BA
:101170005010B247FDDBF2406244D24401450561A4
:101180008280F327203463CD0700B707009003C7A0
:101190000722B7070218A385E7000F00F00F01A090
:1011A000D207D18345476371F70637060218034714
:1011B000060005833D8B544221CB938707408A0765
:1011C0003E96D58283473600BD8A93F7F70F13F614
:1011D000F60FB7E500906374D7001376F70F214739
:1011E000118FB3D7E74093F7F70F03C785F2637DFD
:1011F000F700B707009003C70722B7070218A385B7
:10120000E7000F00F00F01A0828001456FA04503A9
:1012100037C50020130545876F40705D138741086F
:1012200018C1938741C89CC1930700101CC28280DB
:10123000138701C1B707009018C1938707239CC18A
:10124000930700101CC2828037C500201305458912
:101250006F40F059014582803971A16726DA6C0828
:10126000AA841305000206DE3ECE22DC4AD84ED602
:10127000152472443309940237460F003334940224
:101280001306062481464A85A285EF70E02737467B
:101290000F00AA84AE894A85A285130606248146DA
:1012A000EF70A05D4D8D49C113891400B3349900CE
:1012B00033843401B70703189107370703189443A1
:1012C00036C4144336C69C433EC8A246C247638414
:1012D000F60018433AC6B706031842489106B70508
:1012E000031832459C423ECA9C413ECC9C423ECEB5
:1012F0005247F2476304F7009C413ECCF2476247F5
:101300003306A7403337C700B3870741998FE3EB14
:1013100087FC6314F400E36726FDF2506254D25454
:101320004259B2592161828026894E8461B70111E8
:10133000A1676C001305000206CE3EC6A12AF2404A
:1013400032450561828009BF411106C622C426C20A
:101350004AC0F32520347329907CF324103473247D
:10136000303437C500201305458AEF40504837C553
:101370000020CA851305C58BEF40704737C5002094
:10138000A6851305458DEF40904637C50020A28500
:101390001305C58EEF40B045EF10B02DAA8537C5B7
:1013A000002013054590EF40904401A0828085679E
:1013B000FD173377F500AD4663E1E602B7E700902D
:1013C000938707FE0A07BA979C438DC7411106C64B
:1013D0008297B240014541018280630FF7004111BD
:1013E000B717002006C6938787348297B24001451D
:1013F0004101828001458280B7E7009083A7070101
:10140000F1F7CDBF73E0A07CC16773A0A77C0F008C
:10141000F00F0F100000B7E70090938707FE371713
:101420000020938647031307873498C39107E39EF0
:10143000D7FEB7070218A3850700D84383C6070065
:1014400093F6160E2380D700518383C60700798B4D
:10145000558F2380E700996773B00730896773A0C1
:101460000730828082808280828019C5B7E7009031
:1014700023A6A7F20145828009458280B7E7009044
:1014800083A7C7F291C79C4391C38287014582809D
:1014900009458280B7E7009003C707F3AA8719CFF1
:1014A0000D4563FEE70037E70090032747F3D14679
:1014B0007F97D7C401455C439CC1828005458280EB
:1014C0001DC11C498DC383C7B70021476389E7004D
:1014D00031476381E70215476389E7008947238025
:1014E000F500014582800D45828091472380F500FB
:1014F00001458280C1472380F500E5B7133515000B
:10150000FD573305A0402380F5000D8982804111ED
:10151000154522C426C206C6B28436842D35B707C7
:1015200000909387C7042382970080C7B24022446B
:10153000924401454101828015CD411122C406C665
:101540002E84154599E90135B7070090A3888704D3
:10155000B2402244014541018280F5331545EF1028
:10156000406EB7070090A3888704B240224401452B
:10157000410182800D4582801DC11C498DC303A796
:10158000970098C103A7170118C203D79701014517
:101590002390E60083C7B7012381F60082800D45C2
:1015A0008280B706009093878603D8430507D8C387
:1015B00003C60700930500046303B6069305000CF9
:1015C0006308B60037C50020130585916F100053DE
:1015D0004D46B285354863FAE5003707009013079A
:1015E000C7020843410508C3CCC33707009013075F
:1015F000C704834547009DC19C478A07B3D70703AB
:101600009386860393F7F70F93F5F70F636EF60053
:10161000DC4263E5B7001C4791C3828782801306D2
:101620004002B2851D4845BF9375F60FDC42E3E7E3
:10163000B7FED5B71DCD411122C426C206C6044946
:101640002A8495C8C84009CD1C4199C73E85EF1032
:101650002061C84023200500EF10806023A2040011
:101660002285EF10E05F0145B240224492444101DF
:1016700082800D4582800D45C5BF5DC5011126CA1A
:1016800006CE1C49AA84DDC322CC83C6D7004547B9
:101690006385E6064AC84EC603C75701D54713F906
:1016A000F50F01448549631DF700B1A06384370736
:1016B000050405451374F40FEF10A058630F2401BF
:1016C000DC4CDC43E5F74145BD39050405451374A1
:1016D000F40FEF100057E31524FF4249B249B70752
:1016E000009003C517051345150012056244F2402A
:1016F000D244056182804249B249DC4CC04311CCDE
:101700008547E31EF4FC1395350035392285EF102B
:101710004053F1B72145053961BF13954500253187
:101720000545EF10005265BF0D4582800D45C1B7DC
:1017300019C1854599B70D45828005C1411122C463
:101740002E84854506C6153F09E5B707009023A0FE
:101750008704B2402244410182800D45828001CD40
:101760004111854506C6113FB7070090B24023AE30
:101770000702410182800D4582800DCD41115C4DF3
:1017800022C4D84306C685472E846302F702130598
:101790000002553EB707009083C71705414581C732
:1017A000231004000145B24022444101828041459A
:1017B000593ECDB70D45828039C141115C4D22C4DF
:1017C000D84306C685472A84630FF7004145A53EE6
:1017D000B707009083C7170591CF22852244B240F6
:1017E0008545410159BD2145B93EB707009083C7E2
:1017F0001705E5F7B24022444145410182800D457D
:10180000828039C141115C4D22C4D84306C6854748
:101810002A84630FF70041453D36B707009083C720
:10182000170591CF22852244B24085454101B1B5CB
:101830002145113EB707009083C71705E5F7B24071
:1018400022444145410182800D45828049C14111B8
:1018500026C206C60449BDC45C4D22C4D843854790
:101860002E846304F7044145F93CB707009083C711
:1018700017054145B9C3231004002301040083C7A1
:101880001401AD17B337F0008507A300F40083C738
:101890009400BD17B337F00085072300F4002244FD
:1018A000B24092440145410182802145693CB7071D
:1018B000009083C717054145DDFF2244B2409244A2
:1018C00041018280B24092440D45410182800D4524
:1018D000828059C9411122C426C206C604492A84FD
:1018E000B5CC5C4DD84385476306F7061305000267
:1018F000EFF07FA5B707009083C717054145A5C343
:101900001C48A9CF83C6270135476369D70483C61E
:10191000470109476364D70403C73701914763EF61
:10192000E70285452285913B1DE903C7240183C752
:101930004401238BE400238CF40085452285353B4C
:1019400019ED83C73401A38BF400B24022449244C2
:10195000410182804145EFF01F9F69BF0D45B240B4
:1019600022449244410182800D45828051C9411137
:1019700022C426C206C604492A84ADCC5C4DD84395
:1019800085476305F70613050002EFF0DF9BB707F5
:10199000009083C717054145B9CF1C48A1CF83C626
:1019A000A70031476368D70403C6C7009D4663E3B9
:1019B000C60483C7B700636FF70285452285753972
:1019C0001DE903C7A40083C7C4002387E40023885C
:1019D000F40085452285553119ED83C7B400A387EE
:1019E000F400B24022449244410182804145EFF02C
:1019F0009F9571BF0D45B2402244924441018280BF
:101A00000D4582806309050E411122C406C69377F5
:101A100017002A84BDE3937727008DEB118B59E3E0
:101A20002285453D05E15C4CD8438547630FF706A9
:101A30004145EFF05F91B707009003C517051345C7
:101A400015001205B2402244410182809307200311
:101A5000639FF6021C48118BE1D79D462389D7006E
:101A600061D305476373C7068946630BD6061147E2
:101A70006365C706238A070065B71C49C9DF1305DC
:101A8000D0076368B5029145A389B70069B737C528
:101A9000002013058595EF106006B24022440D45E5
:101AA000410182801C48D5FFA5BF2145EFF0BF89C9
:101AB00059B71305A00F637EB5001305401F63647B
:101AC000B5028945A389B700B9B70947238AE7005A
:101AD00081BF8D45A389B7003DBF238AD70089B751
:101AE000238AE70035BF1305803E6368B50085454E
:101AF000A389B7000DB70D458280A389070021BFD8
:101B0000011106CE2EC63DC993D7050122CC93F70D
:101B1000F70F2A840D456365F5045C4CD84326CA4B
:101B200085476303F70413050003EFF0DF81B70473
:101B300000909384C40483C754009DCB5C4CD8436D
:101B400085476301F7044145EFF0EFFF83C7540079
:101B500085C322856244D244F2408D45056131BE81
:101B60006244F240056182806145EFF0CFFDC1B76C
:101B70006244F240D244414505618280F2400D4505
:101B8000056182802145EFF00FFCC9B7411106C6FF
:101B900026C22DC9854522C42A84EFF01FAEAA842F
:101BA0000545EF10000A95EC5C4CD843854763006F
:101BB000F7041C489DC7B716030237170002938627
:101BC000068113074781A3A4D700A3A8E700A3A613
:101BD000D700A3AAE7002244B240268592444101DF
:101BE00082802244B2402685924441018280214570
:101BF000EFF06FF5B707009083C71705DDFBC14411
:101C00002244D9BF8D44B24026859244410182804E
:101C100063080510411122C406C6937717002A8471
:101C2000B5E3937727008DEB118B49E322853D3B8C
:101C300005E15C4CD8438547630DF7064145EFF05D
:101C40008FF0B707009003C517051345150012055F
:101C5000B24022444101828093072003639DF60233
:101C60001C48118BE1D79D462385D70061D31D47C2
:101C70006361C70A37C70020130787020A063A962E
:101C8000184202871C49D1DF09456368B5028D45BA
:101C9000A385B70079B737C500201305C599EF00B4
:101CA000F065B24022440D45410182801C48E1F3B9
:101CB000B5BF2145EFF02FE969B71145637CB50049
:101CC0002145637CB50441486369B804B145A385E7
:101CD000B70081BF9545A385B700A1B71D472386EF
:101CE000E700A9B719472386E70089B71547238678
:101CF000E7002DBF11472386E7000DBF0D47238660
:101D0000E7002DB705472386E7000DB723860700B8
:101D100031BF09472386E70011BFA385A70011B78C
:101D20000D458280011106CE4AC86308050E22CCFB
:101D30004EC6832905012A846388090883A74900C0
:101D4000C1C75C4D26CAD84352C48547AE84328988
:101D5000630DF7084145370A0090EFF0CFDE130A14
:101D6000CA0483475A00C1CF91C4333620013306D9
:101D7000C040F18C85452285EFF03F902A8929EDFE
:101D80005C4CD84385476306F7084145EFF0AFDB6D
:101D900083475A00ADC783A7490013F7040E414695
:101DA0008988A383C7002384E70023839700B706AD
:101DB00000906244F240238CE602D244B249224AA7
:101DC0004A854249056182800D496244F240B24928
:101DD0004A854249056182806244F240D244B24958
:101DE000224A4A854249056182802145370A00908E
:101DF000EFF06FD5130ACA0483475A00B5F741497B
:101E00006244F240D244B249224A4A8542490561BD
:101E100082802145EFF02FD3A5BF0D49F2404A85BE
:101E200042490561828071CD411122C426C206C695
:101E300004492A84C1C403C79400930707FF93F79A
:101E4000F70F894663ECF60683C7D4006395E70273
:101E500003C714019307C7FE93F7F70F8D4663EF8F
:101E6000F60483C7540101456390E706B24022445B
:101E70009244410182805C4DD8438547630FF70649
:101E80004145EFF04FCCB707009083C71705414598
:101E9000F1DF03C79400C9476307F708854522852A
:101EA000EFF0AFFD61F503C7D400C1476308F70841
:101EB00083C79400A386F4000448D9F8B2402244B2
:101EC00092440D454101828022858545EFF0EFFA6D
:101ED0001314850183C7540151476184638EE7025F
:101EE000DD4603C714016380D702A38AE40022857C
:101EF000B24022449244410182802145EFF0AFC4B8
:101F000059B70D458280D547E311F7FE2945EF000B
:101F1000505303C71401D1BF13051005EF007052D1
:101F200003C71401D9B785452285EFF00FF51DFDD4
:101F300089452285EFF06FF415F98DB71545EF004F
:101F40005050BDB759CD011122CC4EC606CE8329C3
:101F500005012A846389090826CA4AC8B6843289D9
:101F6000B9C19C41A3A4F900EFF05FA031E5631D66
:101F70000902B9E82285453D21E15C4CD8438547FB
:101F8000630DF7044145EFF00FBCB707009003C5A0
:101F90001705F240624413451500D2444249B24944
:101FA00012050561828005C283270900A3A8F900F4
:101FB0002285EFF01F9255DDD2444249F24062443F
:101FC000B2490561828095C283D70400A39CF900C1
:101FD00083C72400A38DF90071BF2145EFF0AFB690
:101FE0006DB70D4582800D45D1BF0D45D2444249A4
:101FF000F1B71DCD0C498DCD83C79501BD8BB706BB
:1020000008023707000293860661614693E70707D7
:1020100013074761A3A4D500A38DC500A38CF500C9
:10202000A3A8E5009386950113861501A50519BFA0
:102030000D458280411106C626C251CD22C40449F5
:102040002A84C5C04AC003A94400630C09061305CD
:10205000F00FEF00B040DC402320A900984349C7AF
:10206000FD572384F4002285EFF05FB2AA8401C9F2
:1020700022440249B2402685924441018280228551
:102080008D3FAA8475F537040090130484035C44E3
:10209000E5F3B716002037C500209386265A1305AE
:1020A000459E014751468545EF00102948C469F116
:1020B00037C500201305859FEF00502422440249B4
:1020C00055BF7145EF009039C8C02A8949F1A9442C
:1020D0002244024945B78D44B240268592444101CD
:1020E00082808D44224479B73E85EF00703723A269
:1020F0000400F1BF011106CE22CC4DC126CA4EC646
:1021000083290501AA84638909084AC83709009010
:10211000130989030325C9002E8401C583470901DA
:10212000A1E3954763EE8706B7C70020938787042E
:102130000A043E941C4082874147D147A384E900AA
:10214000A388F9002685C5312A841545EF00702F34
:10215000D2444249B2492285F240624405618280FC
:10216000FD55EF00902605E1230809005DBFE1471A
:10217000A38DF900C1BFD147A388F900E1B7C147DA
:10218000A384F900C1B737C50020130505A2EF00ED
:10219000F0162308090071B7D244B2490D4465BF57
:1021A000D2444249B2490D447DB7011106CE22CC3A
:1021B000630405104AC84EC6832905012A89638B2A
:1021C000090E85472E846380F50689476394F502DE
:1021D00003C729019D47631DF70426CAB704009071
:1021E00093848403C84401C583C70401B5CB414728
:1021F000D54759A89387D5FF93F7D70F91EB83C79E
:10220000A9001D476396E70203C729016312F7027D
:1022100026CAB704009093848403C84429C983C79D
:102220000401B1E735A803C7A9009D476300F70281
:1022300037C50020130545A4EF00500C194442494E
:10224000B2492285F24062440561828026CAB70401
:10225000009093848403C84435C183C70401B9EF57
:10226000FD55EF00D01331ED85472388F4009547E5
:1022700063E18704B7C70020938707060A043E94EA
:102280001C4082874547D547A384E900A388F9000D
:102290004A85513E2A841545EF00B01A2285F24046
:1022A0006244D2444249B249056182804147D147E4
:1022B000E1BFD2444249B2490D4461B74547D147D5
:1022C000E1B737C50020130505A9EF00300369BF4A
:1022D000630E0510B147630DF60063F5C700B547FF
:1022E0006316F600B707009023A6C7040145828055
:1022F000011122CC06CE26CA2A84C5CA83D58600FF
:10230000D8425C4C90423AC42316B100D84332C242
:1023100085476301F70C4145EFF0EF82B704009069
:102320009384C40483C75400D5CB85452285EFF040
:10233000CFB42DE55C4CD8438547630FF70A414580
:10234000EFF06F8083C75400D1CB85452285EFF035
:10235000CFB229E55C4CD8438547630BF70841456C
:10236000EFE07FFE83C75400B5CB85452285EFF0B3
:10237000CFB00DE55C4CD84385476303F708414572
:10238000EFE07FFC83C75400B1CB834741000D458C
:102390006366F50085452285EFF02FAEB1479CC0FE
:1023A000F2406244D244056182809247370700FEC2
:1023B000B7160B00F98F938626C00347C100D58F4F
:1023C000136727003EC25C4C2306E100D8438547D3
:1023D000E313F7F42145EFE01FF789B7B1479CC03D
:1023E000F2406244D2444145056182800D458280BD
:1023F0002145EFE05FF5BDB72145EFE0DFF499B788
:102400002145EFE05FF4BDBF011126CA06CE04519D
:10241000E1C822CC5C4D2A84D5CF85451305000246
:102420004AC8EF3020012A8961C94EC613078003CC
:10243000B7C700202312E4029387870798405CC443
:1024400008C801CB1545EFE01FF01545EF00607F90
:102450000450B709009085479389C904A382F90005
:102460009C4489C71545EFE01FEE0450DC4081C74E
:102470001545EFE05FED5C4CDC4395C30547638693
:10248000E7064145EFE03FEC83C759009DC7014592
:1024900062444249B249F240D24405618280154506
:1024A000EFE07FEA5C4CD8438547E31CF7FC21450D
:1024B000EFE07FE983C75900F9FB4A85EF20F07B05
:1024C000F2402328040062444249B249D2444145C3
:1024D000056182806244F240D2440D4505618280EC
:1024E000F240D2440D45056182802145EFE0BFE511
:1024F00083C75900C5FBD1B729456244424961BF32
:1025000063070510411122C426C206C604492A8465
:10251000B5C4DC40A5C79C43B5C35C4DD8434AC095
:1025200085476303F70613050002EFE0DFE1370993
:1025300000901309C904B707009093878703834667
:10254000590003C70700ADC293060004630AD70A07
:102550009306000C6308D70637C50020130545AB6A
:10256000712BDC4003D7470019C323920700B24008
:102570002244024992440145410182800D45B24006
:1025800022449244410182804145EFE0DFDB37097C
:1025900000901309C904B707009093878703834607
:1025A000590003C70700CDF21377F707930700041C
:1025B0006307F70037C50020130545AB812341456C
:1025C000024975BFDC433547B387E702C207C183C1
:1025D000D8400355470063F5A7002312F7003E8556
:1025E00059D55C4CD84385476305F7021205EFE0E7
:1025F0009FD503455900134515001205024941B7FF
:10260000DC431D47B387E702C207C183D1B70D453D
:1026100082800E05EFE03FD3E9BF397106DE4AD86C
:102620005DCD22DC26DA04492A84C5C803A844000B
:1026300083270800DDC3B70700909387C70403C74B
:102640005700414979C34ED603478800AE891377B6
:10265000070C9305000C631AB7089843B147631D34
:10266000F70A03C79400C547631BF70803C71401A3
:10267000D5476316F70883C7A4001D476395E70A8B
:1026800052D403CA2401631FFA0803C7B400A14748
:102690006318F70A83C73401C5E783C7C400094735
:1026A0006399E70803C744016315F708B70700906B
:1026B00056D2938A870383C70A00130700046388EE
:1026C000E7081307000C638BE71437C500201305D8
:1026D00085C62D21225A925A31A86254D2540D49EE
:1026E000F2504A8542592161828037C50020130586
:1026F00005AF292119496254D254B259D5B737C50B
:1027000000201305C5B6DD2EF5B76254F250D25441
:102710004A8542592161828037C50020130505B3DF
:10272000F12EC9BF225A37C50020130585BAF926F4
:10273000D1B737C500201305C5C2C926225A5DBFCF
:1027400037C50020130505BF552E225A65B79D4792
:10275000B387C7022312F800228536C655332A896B
:1027600069E1DC4003D747005AD033474703B246FC
:10277000137BF70F630D0B0A66CA832C0401638079
:102780000C0E370A0090130ACA025ECE62CC137494
:10279000F70F832B0A00032C4A009314440063F8BC
:1027A0008B0B6AC883278A00338D740136C6B385C4
:1027B00077016377AC09330D7C416A864E85EF3033
:1027C000F01F33868B4126963385A9018145EF3072
:1027D0003014B24683A74C0003C7670023208A0148
:1027E0008947630BF70009C8CE853387990023A674
:1027F0000500C105E39DE5FE424D83A74A00818F98
:1028000023A2FA00239066016254D254B259225A8C
:10281000925A025BF24B624CD24CD9B5354AD28700
:1028200005BF6254D254B259225A925A55BD2390D0
:1028300006006254D254B259225A925A025B4DB5E4
:1028400026864E85EF3090176A8CB24661B7268691
:1028500081454E8536C6EF30B00BB24679BF625423
:10286000D254B259225A925A025BD24C8DBD397160
:1028700006DE4AD859CD22DC26DA04492A84C1C8AA
:10288000D84051C71C43C1C7B70700909387C704FE
:102890004ED6AE8983C557004149D1C183458700D3
:1028A00093F50504CDC18C43B1476392F50883C508
:1028B0009400C5476393F50852D403CAA4009D470A
:1028C0006319FA0883C5B400A147639BF50883C563
:1028D000C4008947639FF51656D2B70A0090938AC1
:1028E0008A0383C70A00930500046382B70893052F
:1028F000000C6387B71637C50020130545E0FD2A95
:10290000225A925A19496254D254B25921A062549F
:10291000D2540D49F2504A85425921618280625455
:10292000F250D254B2594A8542592161828037C54A
:102930000020130545CED922F1B737C50020130575
:10294000C5D16D2AC1B737C50020130585CA7D22C0
:1029500055BF37C50020130545D54D22225A5DB716
:1029600037C50020130585D9512A225A61BF9D47DA
:10297000B387C7022312F700228536C6EFF05FB88F
:102980002A8971E1DC4083D74700B246B3C74703C9
:1029900013FAF70F63070A0A5AD0032B04016306E0
:1029A0000B14B70400909384C4025ECE13F4F70FA7
:1029B000984083AB440013154400637E77119C4418
:1029C0003A95BA9763E1AB0A6308041229474E8827
:1029D0007F18E4C499074E870396070083A5670014
:1029E0002310C700039627002907231CC7FE039660
:1029F0004700232EB7FE231DC7FEC107E31E07FDB8
:102A000083274B0003C7670088C08947630CF70022
:102A10002947CE87FF17E4C4CE8523A30500A90567
:102A2000E39DF5FE83A74A00818F23A2FA0023903D
:102A300046016254D254B259225A925A025BF24B66
:102A4000D1BD239006006254D254B259225A925AF0
:102A5000D1B537C50020130505DD4D20225A5DB5DF
:102A6000354AD28731B73387EB40135547001DC92C
:102A700029474E887F18E5C499074E8703960700BB
:102A800083A567002310C700039627002907231C8E
:102A9000C7FE03964700232EB7FE231DC7FEC107BE
:102AA000E31E07FDA9474E877F17F5C43306A440F0
:102AB0003306F6023A85814536C6EF3060658327D6
:102AC0004B0003C7670023A074018947B246E30B9C
:102AD000F7F41DFC81BF29463306C40281454E85AB
:102AE00036C6EF30E062B24635BF6254D254B259B6
:102AF000225A925A025B31BD88C02DB7397126CA5D
:102B000044102ED2A68506CE22CC26C632D436D686
:102B10003AD83EDA42DC46DEEF3000502A8437C530
:102B20000020A6851305C5E3EF30004F418DF2402C
:102B30006244D2442161828001112E8806CEAA858A
:102B4000BA873685630E08000547C286631CE80213
:102B50002A876800492A11E93245F24005618280DE
:102B60002A8781466800412265D9B707009083A76C
:102B700087226357F00037C50020130585E5BD3F68
:102B80000145E1BFB707009083A78722E35AF0FE13
:102B900037C50020130505E4953701457DBF411178
:102BA00006C64D2A01E5B24041018280B707009078
:102BB00083A787226344F0007D55F5B737C5002011
:102BC0001305C5E6253F7D55F9BF411106C6C9224B
:102BD00001E5B24041018280B707009083A78722B8
:102BE0006344F0007D55F5B737C50020130505E8AF
:102BF00031377D55F9BFBD4763EAA700B7B7052058
:102C00000A059387C7E2AA97884382807D55828010
:102C10000111BA87420636874182BE867C0006CE05
:102C2000D92D85476316F500F24032450561828053
:102C3000F2400145056182806F00A07382806F00C1
:102C4000D007B7E7009083C787F391E382804111F3
:102C500006C60928B24041016F0070486F20005A33
:102C60006F20C073B7D6CCCC9386D6CCB337D50201
:102C7000898315462A877F97C7C6B7D7CCCC330739
:102C8000E5409387C7CC3336E500B307F702FF175B
:102C9000D6C63336D702B2973307D70205831396C9
:102CA000F701598EA94585833337B602AA86FF16E8
:102CB000B6C67F97B7C43335D500B307E040898FD8
:102CC000DD8EB336D0003305D6008280411106C6B2
:102CD000EF206049584109C7B2400C4541010287C5
:102CE000B2404101828001114EC6AA89314526CAEF
:102CF0004AC852C456C25AC006CE2E8B3289B684F8
:102D0000BA8A3E8AA13F29C522CC2A844A85993FA6
:102D100037370020AA85A28626865A851307C7CC96
:102D2000EF10307F08C015C1232254012324440131
:102D300023A0890001456244F240D2444249B2498D
:102D4000224A924A024B056182802285113F6244E9
:102D50000545DDB7411122C426C206C6FD572E84A3
:102D6000AA846385F5002E85F53D2A848440EF0012
:102D7000C07F2A862287268581468545EF2040012F
:102D8000B24022447D1592443335A0004101828037
:102D9000411122C406C6FD572E872A846385F5009B
:102DA0002E85C9352A870840814601468D45EF109A
:102DB000307EB24022447D153335A000410182802F
:102DC000411126C2AA84114506C6493D05C522C443
:102DD0000D462A8481450545EF10E04608C001C92B
:102DE00080C001452244B240924441018280228544
:102DF000853D22440545C5BF411122C406C6FD5785
:102E00002A846385F5002E85B13DAA850840EF1020
:102E10001032B24022447D153335A000410182803A
:102E2000011108416C0006CE02C6EF10B0038547C1
:102E30006315F502B24791CFF32740F19DE33717B1
:102E400003188327C7FF93E71700232EF7FE0F0011
:102E5000F00FF240014505618280F2403E85056138
:102E60008280371703188A07BA9788C30F00F00FBC
:102E7000CDB701456F006071011122CC4AC806CE62
:102E800026CA4EC62A84EFD0FFE137E70090832799
:102E9000C7F685072326F7F637E900908327C9F799
:102EA000D1CFB7E9009083A709F65854A5CFB7E46E
:102EB000009093848407B7E6009083A706F5850702
:102EC00037E6009023A8F6F47CC0832746F663F427
:102ED000E7002322E6F6D14726857F15F7C4930540
:102EE0004400EF10B04DEFD0FFDF83A709F685C790
:102EF0008327C9F7D8575C54637FF700F32740F165
:102F0000A9EF371703188327C7FF93E71700232E6E
:102F1000F7FE0F00F00FF2406244D2444249B2493A
:102F2000056182808327C9F7B7E40090DC5793845A
:102F30008407E362F7F8232E89F6B5BF232E89F6BE
:102F40000327C7F685476303F702B7E4009093842D
:102F500084075854B7E90090B9BF371703188A0798
:102F6000BA97054798C30F00F00F75B7B7E90090FF
:102F70009384890752C493898907138A040A4E856A
:102F8000D109EF101042E31C3AFF37EA0090130515
:102F90004A06EF101041B7E9009013850905EF10BC
:102FA000504037E500901305C503EF10903F37E51B
:102FB000009013058502EF10D03E37E50090130511
:102FC0004501EF10103E130A4A06B7E7009023AC04
:102FD00047F793890905B7E7009023AA37F75854B4
:102FE000B7E90090224AC1BD011126CAB7E7009097
:102FF000B7E400904EC683A987F683A7C4F722CC16
:103000002A84138547004AC806CE2E89EF10503F08
:10301000FD576300F4044E9483A7C4F7C0C36363F1
:103020003405B7E7009003A587F783A5C4F791059A
:10303000EF10303AB7E7009003A7C7F46374E400D9
:1030400023A687F4F2406244D2444249B249056162
:103050008280631C09041387F9FF83A7C4F7D8C3D0
:1030600063810902B7E7009003A547F7624483A58F
:10307000C4F7F240D2444249B249910505616F104C
:103080005035B7E7009003A587F783A5C4F79105EE
:10309000EF103034F2406244B7E70090D244424926
:1030A000B24983A7C7F40561828083A5C4F762444F
:1030B00037E50090F240D2444249B24991051305E8
:1030C000450105616F10902F01114EC6931926001E
:1030D00022CC52C44E862A8A2E84032508039305E7
:1030E000500A26CA4AC856C25AC0C2843E8B06CE6F
:1030F000B68A3A89EF30C001F1199C58BE9993F90C
:1031000089FF51CCA285930704011388440383C827
:103110000500230018018505638508000508E3986C
:10312000F5FEA38104049D4763F327013E891385BF
:10313000440023A6240323A6240523A80404EF1097
:10314000902713858401EF101027A147B3872741EB
:1031500084C8C4D023A4040623AA04049CCC23ACB2
:10316000040423AE040423A0040623A2040623A619
:103170000406238804065686D2854E85EFD03FAEDE
:1031800088C063040B0023209B00F2406244D244B9
:103190004249B249224A924A024B05618280238AFF
:1031A000040251B701114EC652C4B7E9009037EA84
:1031B000009026CA4AC856C25AC006CE22CC93896D
:1031C0008902130A8A07B7E4009037E90090854A1C
:1031D000094B83A704F7ADC3EFD0DFAC83A7C900C9
:1031E000C04713054400EF10B0218327C9F6FD172F
:1031F0002326F9F683A704F7FD1723A8F4F6EFD0EA
:103200007FAE8347140785C3638D5705E38367FD4E
:10321000B707009003C70722B7070218A385E70086
:103220000F00F00F01A00858EF2040172285EF2073
:10323000E01683A704F7CDF383270A000547637FD1
:10324000F700F32740F195E3371703188327C7FFEB
:1032500093E71700232EF7FE0F00F00FEFD0FFFAD1
:103260008DBF2285EF208013ADB7B71603188A07EC
:10327000B69798C30F00F00FD5B7B9C3011122CC90
:1032800006CE4284630308029308400746C63243D1
:1032900063031305B707009003C70722B707021897
:1032A000A385E7000F00F00F01A0B707009003C748
:1032B0000722B7070218A385E7000F00F00F01A04F
:1032C000B707009003C70722B7070218A385E700D6
:1032D0000F00F00F01A08948A30818072328F8025F
:1032E000B2483C00D5332285EFF01FB9F24062446A
:1032F00022450561828079714ECEAA891315260078
:1033000026D252CC56CA5AC85EC606D6B2842E8A77
:10331000B68A3A8BBE8BEF10706E31C922D42A84E4
:10332000130540074AD0EF10706D2A8905CD00D9EA
:103330002A88A3080506DE875A87D6862686D28580
:103340004E85EFF07FD84A85EFF01FB30545225434
:103350000259B2509254F249624AD24A424BB24B9D
:10336000456182802285EF206003225402597D55F9
:10337000CDB7411122C42A844AC006C626C237E905
:103380000090EFD03F9279C0930444002685EF105F
:1033900030071C5489C713058401EF10700637E706
:1033A0000090832707F585072328F7F48327C9F7BB
:1033B000638F870637E700908327C7F6FD1723261C
:1033C000F7F68347140795C30547638DE70A094756
:1033D0006383E702B707009003C70722B707021805
:1033E000A385E7000F00F00F01A00858EF10107B35
:1033F0002285EF10B07AB7E7009003A787F718434C
:1034000029EBB7E700907D5723A6E7F4EFD09F8D17
:10341000B7E7009083A707F689C78327C9F76383B7
:103420008704B2402244924402494101828037E538
:10343000009013058502A685EF10407837E70090CD
:10344000832707F785072328F7F6C9B70324C9F7A9
:1034500025BF83A787F7DC479843B7E7009023A6EB
:10346000E7F46DB7B7E7009083A747F485C3B707C4
:10347000009003C70722B7070218A385E7000F00D3
:10348000F00F01A02285EF107071B5B7F32740F15E
:1034900081EF371703188327C7FF93E71700232E01
:1034A000F7FE0F00F00FB5BF371703188A07BA975A
:1034B000054798C30F00F00FADB7011170002C0045
:1034C000480006CE02C202C4EFD05FD5B7C50020C7
:1034D00037350020A24712483246938505E9130587
:1034E000451A01478146EFF05FD9B7E7009023A462
:1034F000A7F429CDEF10807B85476300F502FD57C7
:103500006316F504B707009003C70722B707021830
:10351000A385E7000F00F00F01A0B707009003C7D5
:103520000722B7070218A385E7000F00F00FB7E7DF
:1035300000907D5723A6E7F4B7E7009023A0A7F6F5
:10354000B7E7009023A407F6EFD0FFB3F240B7B778
:10355000002083A787520561828037E70090832788
:1035600047F485072322F7F48280411106C622C45E
:10357000EFD04FF3B7E7009003A487F6EFD08FF6B4
:103580002285B24022444101828001C513054503D2
:103590008280B7E7009003A5C7F76DF9B7070090E1
:1035A00003C70722B7070218A385E7000F00F00F33
:1035B00001A07971B7E7009006D656CA83A747F4F1
:1035C000CDEFB7E700904AD003A987F6050966C298
:1035D00023A427F76300090C4ECE5EC6B7EC00901B
:1035E00083A7CCF46369F90C52CC37EA00908327A7
:1035F0008AF79C4363820716B7E900905AC862C4F1
:1036000022D426D293898907814AB7EB009037EB01
:103610000090514C89A0EF10A05E1C54130584014A
:1036200099C3EF10E05D5C544E8503274BF67F9500
:1036300087C5A6856374F7002322FBF6EF100058B8
:1036400083A7CBF7DC5758546363F700854A832779
:103650008AF79C43E5C383278AF7DC47C047930476
:1036600044005C402685E378F9FA23A6FCF4225452
:103670009254624A424B224CB1A037E70090832714
:10368000C7F58507814AB250232EF7F45685D24AF2
:1036900045618280B7E7009003A787F7184331CFD1
:1036A000B707009003C70722B7070218A385E700F2
:1036B0000F00F00F01A0B7E9009093898907814AB4
:1036C000B7EB009083A7CBF7D857D147FF19F7C4C2
:1036D000854703A7090063F3E700BE8AB7E70090B8
:1036E00083A787F591C3854AB2500259F249B24B7C
:1036F000924C5685D24A4561828037E7009083A676
:1037000087F7032647F723ACC7F6232AD7F6B7E691
:10371000009003A746F5050723AAE6F403A787F759
:103720004ECE5EC6184305E3B7EC0090FD5723A6C6
:10373000FCF47DB522549254424B224CFD5723A6F3
:10374000FCF4624A41B783A787F7DC479C43B7EC98
:10375000009023A6FCF469B5B7E900909389890726
:10376000814AB7EB0090D9BF797106D622D4EFD049
:103770006FD3B7E7009003A747F47D1723A2E7F4C0
:1037800083A747F463960710B7E7009083A7C7F6AF
:10379000638007104AD037E900901309C9035EC659
:1037A00026D283270900B7EB0090D1C752CC37EA65
:1037B00000904ECE56CA5AC862C4130A8A07B7E9A7
:1037C000009037EB0090B7EB0090D14A054C83276F
:1037D000C900C04713058401EF10804293044400E0
:1037E0002685EF10E0415C54528503A749F67F958A
:1037F00057C5A6856374F70023A2F9F6EF10003CC5
:103800008327CBF7DC5758546364F70023AC8BF560
:1038100083270900CDFFB7E7009003A787F7184378
:1038200041E3B7E700907D5723A6E7F4F249624AE7
:10383000D24A424B224C37E900900324C9F519C8FB
:103840008544EFF01FD77D1419C123AC9BF475F8A4
:10385000232E09F483A78BF58DCBF32740F1A1EB41
:10386000371703188327C7FF93E71700232EF7FEA8
:103870000F00F00F054492540259B24BEFD08FC69F
:103880002285B25022544561828092540259B24B33
:10389000EFD04FC501442285B25022544561828049
:1038A00083A787F7DC479843B7E70090B5BF371782
:1038B00003188A07BA97054798C35DBFB7E700901A
:1038C00083A747F481EFB707009003C70722B70724
:1038D0000218A385E7000F00F00F01A071B509EDF4
:1038E000F32740F18DCF371703188A07BA9705479A
:1038F00098C30F00F00F8280411122C437E400907A
:1039000006C6832744F49DC7B707009003C7072264
:10391000B7070218A385E7000F00F00F01A03717C3
:1039200003188327C7FF93E71700232EF7FE0F0026
:10393000F00F8280832744F485072322F4F4814525
:10394000EFF08FEA832744F481EFB707009003C7B5
:103950000722B7070218A385E7000F00F00F01A0A8
:10396000EFF09FE011EDF32740F199EF37170318BF
:103970008327C7FF93E71700232EF7FE0F00F00FF2
:10398000B240224441018280371703188A07BA9750
:10399000054798C30F00F00FE5B7B7E7009083A77E
:1039A00047F499C7B7E70090054723ACE7F4828056
:1039B000B7E7009023AC07F4B7E7009003A787F6BA
:1039C000B7E70090411123AEE7F237E7009022C439
:1039D00006C683A6C7F3032607F437E40090637A8C
:1039E000D60003A5C7F38325C4F7B455918EAA96D4
:1039F000B4D503A6C7F38326C4F78327C4F72320CF
:103A0000C7F49C5B984263F7E706B7E60090B7E51A
:103A100000909386860783A745F6514636877F97A1
:103A2000C7C4184301EB85CFFD1736877F97C7C4FE
:103A3000184375DB51473387E7023385E600504171
:103A40005042210750C1BA96630FD6025846232E22
:103A5000E4F6B240224423A2F5F641018280B70782
:103A6000009003C70722B7070218A385E7000F00DD
:103A7000F00F01A00325C4F78325C4F79385450300
:103A8000EFD00FF959B7504250C1C9B71DC141110C
:103A9000B7E7009022C42E8483A5C7F7E10506C6C8
:103AA000EF10201322852244B240854541016FF07A
:103AB000AFD3B707009003C70722B7070218A38543
:103AC000E7000F00F00F01A005C94111B7E7009012
:103AD00026C2AE8483A5C7F722C4E105328406C698
:103AE000EF10C00D11C0FD54A2852244B2402685BE
:103AF000924441016FF04FCFB707009003C70722F0
:103B0000B7070218A385E7000F00F00F01A04111CD
:103B10005C4522C406C626C2C04735CC9304840146
:103B20002685EF10E00DB7E7009083A747F49DCB03
:103B300037E500901305C503A685EF102008B7E709
:103B4000009083A7C7F7DC575854014563F7E70097
:103B5000B7E70090054523ACA7F4B2402244924455
:103B600041018280930444002685EF10600937E705
:103B700000905C54832647F663F4F6002322F7F6A0
:103B800037E500905147130585077F95E7C4A68563
:103B9000EF10C0026DB7B707009003C70722B70741
:103BA0000218A385E7000F00F00F01A037E700908F
:103BB000B7E70090032747F583A787F618C15CC1D4
:103BC00082803DC1411126C206C622C4AE84B1C165
:103BD0002A84EFD02F8D37E700909C40832687F60C
:103BE0007D56638BC706B7E5009003A545F503280E
:103BF000040050406305A80463E3C60423A0040046
:103C00000544EFD02F8E2285B240224492444101D8
:103C10008280B707009003C70722B7070218A38561
:103C2000E7000F00F00F01A0B707009003C70722BD
:103C3000B7070218A385E7000F00F00F01A0338536
:103C4000C640E37DF5FA958FB2979CC083A645F5F3
:103C5000832787F614C05CC0014465B7B7E70090BE
:103C6000054723ACE7F48280B7E7009083A707F607
:103C7000054581CBB7E7009003A547F41335150040
:103C8000060582802DC5011126CAB7E4009083A7DE
:103C9000C4F722CCD85706CE5C552A8463FEE702CF
:103CA0004AC8184D6348070003A7C4F75457214773
:103CB000158F18CD37E9009013098907D1464A8737
:103CC0007F97D7C45C486386E70283A7C4F7DC57B5
:103CD0005CD40545424939A083A7C4F7DC57684541
:103CE0003335F500F2406244D244056182800145DB
:103CF00082804EC6930944004E85EF00707083A702
:103D0000C4F7DC5737E700905CD4832647F663F4AA
:103D1000F6002322F7F651474A857F95E7C4CE8502
:103D2000EF00D069B24975B731CD4111B7E70090C6
:103D300022C406C603A4C7F7630DA400B70700900A
:103D400003C70722B7070218A385E7000F00F00F8B
:103D500001A03C4889CFFD173CC854547844638384
:103D6000E6009DC30145B240224441018280B7076D
:103D7000009003C70722B7070218A385E7000F00CA
:103D8000F00F01A00145828026C2930444002685DD
:103D9000EF0010677C4421471D8FB7E6009018CCD8
:103DA0005CD403A746F66374F70023A2F6F637E562
:103DB00000905147130585077F95E7C4A685EF005E
:103DC000F05F0545924445B725CD411122C406C692
:103DD0003C492A8481EFB707009003C70722B70741
:103DE0000218A385E7000F00F00F01A07845636C6F
:103DF000B70054546385E60005466388C700B240A7
:103E00002244410182802E87EDB7B7E7009083A757
:103E1000C7F76383870626C258D41C4C63C50700C6
:103E2000A147998F1CCCB7E4009093848407514735
:103E3000A687FF97E6C458486305F7009244C1B7C8
:103E400082804AC0130944004A85EF00705B37E75F
:103E500000905C54832647F663F4F6002322F7F6BD
:103E60002685514722447F95E7C49244B240CA85D3
:103E7000024941016F009054B707009003C7072221
:103E8000B7070218A385E7000F00F00F01A0B7E7FE
:103E9000009003A7C7F711C783A6C7F7B84A05075D
:103EA000B8CA03A5C7F78280411122C426C206C63C
:103EB000045D3C412A8499EB1C4185040145A5CF52
:103EC00004DCB24022449244410182804AC03289DB
:103ED0003E86631709024841EF20402E5C4038407F
:103EE000BA975CC01844850463E4E7001C405CC0DA
:103EF0000249B24004DC22449244014541018280DF
:103F00004845EF20A02B38405C44998F5CC4144096
:103F10003307E04063F5D7001C44BA975CC4894777
:103F20006301F90285040249B24004DC2244924450
:103F30000145410182800844EFF01FDF2324040083
:103F400041B7DDF485446DB7011122CC06CE204582
:103F50002AC61DC8185C5C5C637DF70026CA185C25
:103F60008144636EF702F24062442685D2440561C3
:103F70008280B707009003C70722B7070218A385FE
:103F8000E7000F00F00F01A0B707009003C707225A
:103F9000B7070218A385E7000F00F00F01A04AC879
:103FA0000349540401466C002285FD3D6209135902
:103FB0008941FD57AA84630EF9009307F007630651
:103FC000F90293071900E207E187A302F4044249CA
:103FD00059BF5C5099E3424979B713054402EFF0A9
:103FE0001FB375D985444249BDBFB707009003C7C9
:103FF0000722B7070218A385E7000F00F00F01A002
:10400000411122C426C206C6AA844AC0EFC09FC975
:1040100083C7540413948701618463528004138915
:10402000440219A8153715E19307F4FF139487018B
:1040300013F7F70F618405C7BC442685E5F7DC500C
:104040004A8591CFEFF0BFAC65D1EFF03FC1930748
:10405000F4FF1394870113F7F70F618471FFFD5785
:10406000A382F404EFC01FC8EFC0DFC383C74404BA
:10407000139487016184635D80021389040109A898
:104080009307F4FF1394870113F7F70F61840DC3AF
:104090009C484A8591CFEFF09FA77DD1EFF01FBCE0
:1040A0009307F4FF1394870113F7F70F61846DF3FF
:1040B000FD572382F4042244B24092440249410154
:1040C0006FC05FC239C5411122C426C22A8406C608
:1040D000AE84EFC03FBD38405C5CB307F7021440CC
:1040E0003387E740232C04027D563697B697230288
:1040F000C40458C41CC454C0A302C40495E41C489E
:10410000A1E7EFC03FBEB2402244924405454101C1
:104110008280B707009003C70722B7070218A3855C
:10412000E7000F00F00F01A013050401EF00702756
:1041300013054402EF00F026EFC0DFBAB24022447C
:10414000924405454101828013050401EFF03F9C34
:104150004DD9F32740F181EF371703188327C7FFA5
:1041600093E71700232EF7FE0F00F00F59BF371704
:1041700003188A07BA97054798C30F00F00F51B785
:1041800001EDB707009003C70722B7070218A38500
:10419000E7000F00F00F01A095C6797106D63DCE5D
:1041A0008DCD930740053ECE72486303F804B707F0
:1041B000009003C70722B7070218A385E7000F0086
:1041C000F00F01A0B707009003C70722B707021836
:1041D000A385E7000F00F00F01A0B707009003C709
:1041E0000722B7070218A385E7000F00F00F01A010
:1041F000F2478547C8DEACC22383F60490C23685F9
:10420000BE853AC636C47D3DA24632472388E604C1
:10421000B25023A4060436854561828091E9930754
:1042200040053ECE7246E314F6F8F2473686D1B723
:10423000B707009003C70722B7070218A385E70056
:104240000F00F00F01A001EDB707009003C7072290
:10425000B7070218A385E7000F00F00F01A00111B6
:1042600022CC4EC806CE4ACA2A84B289A1E11305DF
:1042700040052EC6EF0090782DC9230305042A8936
:10428000B2452320A9002320B904232E89028545A5
:104290004A85EFF03FE32308390523240904F2405F
:1042A00062444A85C249524905618280B337B502EA
:1042B0003305B50285E39307B0FA63FAA702B7079F
:1042C000009003C70722B7070218A385E7000F0075
:1042D000F00F01A0B707009003C70722B707021825
:1042E000A385E7000F00F00F01A001494DBF1305A2
:1042F00045052EC6EF0090702A89B2457DD523036F
:10430000050413054505B5BF397106DE32C66308DD
:10431000051222DC4AD84ED62A84AE893689638EAD
:10432000050E89476311F902585C8547630DF70054
:10433000B707009003C70722B7070218A385E70055
:104340000F00F00F01A0EFF03F92630E051026DA88
:10435000EFC05F95185C5C5C6368F7128947630E79
:10436000F91452D456D25AD08147130A8101FD5410
:10437000930AC100130B040139A8EFC0BF96228530
:10438000EFF01FC8EFF08FD3EFC0DF91145C585CE3
:10439000854763E8E60E3247630C0714C9CFEFC0C8
:1043A0007F94EFF08F9BEFC0FF8F83474404E207B9
:1043B000E187639497002302040483475404E207CF
:1043C000E18763949700A3020404EFC0BF91D685F0
:1043D0005285EFF00FFF63140512EFC0BF8C185C1D
:1043E0005C5CE31CF7F8EFC0FF8FB2455A85EFF035
:1043F000EFE92285EFF0DFC0EFF04FCC51F5F32766
:1044000040F1A9EB371703188327C7FF93E717007D
:10441000232EF7FE0F00F00F85BF3C41E38307F02A
:10442000B707009003C70722B7070218A385E70064
:104430000F00F00F01A05285EFF04FF78DB7B707CF
:10444000009003C70722B7070218A385E7000F00F3
:10445000F00F01A0371703188A07BA97054798C3CA
:104460000F00F00F15B7B247E38307EEB7070090D0
:1044700003C70722B7070218A385E7000F00F00F54
:1044800001A0225A925A025B4A86CE852285045C9C
:10449000EFF09FA13C4495CB89476309F90422853D
:1044A000EFF09FAA15E5EFC0FF8305456254F25077
:1044B000D2544259B259216182804A86CE852285E2
:1044C000045CEFF07F9E3C4495E35C50A1EB61DD22
:1044D000F32740F19DEB371703188327C7FF93E7B6
:1044E0001700232EF7FE0F00F00F75BFCDFC45BF60
:1044F000EFC04FFF0145225A925A025B45BF228509
:10450000EFF01FB0EFF08FBBF5B7371703188A072E
:10451000BA97054798C30F00F00F71B7130544020F
:10452000EFF0EFDE49D16DB76DC1011122CC26CA83
:104530004AC85AC006CE2A842E8B3289B684A5CDAD
:1045400089476391F402585C8547630DF700B7070C
:10455000009003C70722B7070218A385E7000F00E2
:10456000F00F01A052C456C2EFC0BFC1B707021876
:10457000370A009083C6B70003470A2293FAF60F62
:10458000A385E7000F00F00F185C5C5C6362F70422
:1045900089470145638EF402B7070218A3855701C6
:1045A0000F00F00FF2406244224A924AD24442493C
:1045B000024B056182803C41C1D7B707009003C719
:1045C0000722B7070218A385E7000F00F00F01A02C
:1045D0004EC683495404DA8526862285E209032BD8
:1045E0008403EFF07F8C93D98941FD57638AF902E8
:1045F0009307F0076387F90493871900E207E187BF
:10460000A302F4040545B24941BFB707009003C7B0
:104610000722B7070218A385E7000F00F00F01A0DB
:104620003C448DCB89476394F400E31D0BFC228549
:10463000EFF09F9161D9E30709FC85472320F9003A
:10464000D1B703470A22B7070218A385E7000F0076
:10465000F00F01A05C50DDD713054402EFF02FCB23
:1046600079F94DB741C13C4181CFB707009003C7ED
:104670000722B7070218A385E7000F00F00F01A07B
:10468000011126CC06CE4ACA1C41AE84BDC72AC63B
:10469000EFC03FAFB70602183706009083C7B600D9
:1046A0000347062213F9F70FA385E6000F00F00F6A
:1046B00032451C5D585D63FFE704034755048507D9
:1046C00062071CDD6187FD576302F7069307F00759
:1046D0006308F70693071700E207E187A302F504D2
:1046E000054515A8B707009003C70722B7070218AA
:1046F000A385E7000F00F00F01A01C45C9DBB70739
:10470000009003C70722B7070218A385E7000F0030
:10471000F00F01A00145B7070218A38527010F007C
:10472000F00FF240E2445249056182803C4585C366
:10473000EFF09F8155D5CDD485479CC00545E1BF9D
:1047400083470622A385F6000F00F00F01A05C51FD
:10475000C1DB13054502EFF08FBB71FD054565BF59
:10476000397106DE32C6630B051222DC52D42A846C
:104770002E8AC5C5EFF04FCF55CD4AD8EFC08FD2A6
:10478000032984036313091426DA4ED656D2B2479E
:10479000ADCB930981014E85EFF04FC1930AC10063
:1047A000FD54EFC02FD4EFE05FDBEFC0AFCF834706
:1047B0004404E207E18763949700230204048347DB
:1047C0005404E207E18763949700A3020404EFC056
:1047D0006FD1D6854E85EFF0CFBE35E9EFC08FCCD7
:1047E0001C5CD1C3EFC00FD02285EFF07F81EFF0CA
:1047F000EF8CEFC02FCB032984036315090CB2475C
:10480000CDF3EFC02FCE0145D254B259925A625423
:10481000F2504259225A216182803C41A1DFB70700
:10482000009003C70722B7070218A385E7000F000F
:10483000F00F01A0B247B1D3B707009003C707221A
:10484000B7070218A385E7000F00F00F01A022852B
:10485000EFF00FFBEFF08F86EFC0CFC41C5CD5D319
:10486000EFC04FC879B7EFC0EFC7B2451305440298
:10487000EFF0CFA12285EFF0AFF8EFF02F8435F9FC
:10488000F32740F19DE7371703188327C7FF93E706
:104890001700232EF7FE0F00F00FA1BFB7070090FF
:1048A00003C70722B7070218A385E7000F00F00F20
:1048B00001A0371703188A07BA97054798C30F0056
:1048C000F00F05BFD254B259925A304001CE4C4439
:1048D000B2954CC41C4463E4F5000C404CC45285B2
:1048E000EF10D00D7D19232C24031C4889E7EFC05D
:1048F0006FBF054529BF13050401EFF04FA165D92E
:10490000F32740F181EF371703188327C7FF93E799
:104910001700232EF7FE0F00F00FD1BF3717031833
:104920008A07BA97054798C30F00F00FC9B73971C6
:1049300006DE22DC26DA4AD84ED652D456D22EC60D
:1049400049CD3C412A8481CFB707009003C7072295
:10495000B7070218A385E7000F00F00F01A0EFF0E2
:10496000AFB0AA8451C5814A8144930981017D5920
:10497000130AC100EFC00FB31C5C63940716B24763
:1049800063840714D5C8EFC0EFB5EFE01FBDEFC0DB
:104990006FB183474404E207E18763942701230250
:1049A000040483475404E207E18763942701A302C8
:1049B0000404EFC02FB3D2854E85EFF08FA031E510
:1049C000EFC04FAE1C5CC9C3EFC0CFB12285EFF082
:1049D0002FE3EFE0BFEE854471BFB707009003C738
:1049E0000722B7070218A385E7000F00F00F01A008
:1049F000B247C9CBB707009003C70722B707021811
:104A0000A385E7000F00F00F01A02285EFF04FDF34
:104A1000EFE0DFEAEFC00FA91C5C9DE3EFC08FACB5
:104A200063940A060145F2506254D2544259B25975
:104A3000225A925A216182804E85EFF02F97A1B7BA
:104A4000EFC04FAA85443DB7EFC0CFA91C40A5C712
:104A5000B24513054402EFF06F832285EFF04FDA81
:104A6000EFE0DFE52DF9F32740F18DEF371703185D
:104A70008327C7FF93E71700232EF7FE0F00F00FE1
:104A80008544CDBD814AD5B5EFC0CFA14C5089C575
:104A90001C589C43A1459D8D0844EFF0EFB2EFC038
:104AA0006FA449B7371703188A07BA97054798C301
:104AB0000F00F00FF1B7EFC0EF9E0844EFF08F9CAE
:104AC000AA8AEFC02FA269B7E38B0AFCB707009050
:104AD00003C70722B7070218A385E7000F00F00FEE
:104AE00001A0FD171CDC1C4099C71C4889EBEFC0D6
:104AF0006F9F05450DBFEFF08FB908C4FDB71305D3
:104B00000401EFF0CF8065D5F32740F181EF37172F
:104B100003188327C7FF93E71700232EF7FE0F0024
:104B2000F00FF1B7371703188A07BA97054798C3EC
:104B30000F00F00F6DBF411122C426C24AC02A8463
:104B400006C6AE843289EFC0EF9583474404E2077E
:104B5000E1877D576394E7002302040483475404EC
:104B6000E207E1877D576394E700A3020404EFC0E6
:104B70006F971C5C89CB22852244B2409244024943
:104B800041016FF0EFC7130544024A86A685EFE0A6
:104B9000BFF322852244B2409244024941016FF0A2
:104BA0002FC6930785007D575CC15CC51CC92320B7
:104BB000050018C582802328050082805C41984743
:104BC00098C5DCC14CC38CC71C41850788C91CC172
:104BD000828090417D57930785006300E602BE8680
:104BE000DC439843E37DE6FEDCC18CC794C51C41E1
:104BF000CCC2850788C91CC182801449DC42EDB74C
:104C0000544118451C4998C654C3D4436389A6002F
:104C100098437D172328050098C388438280D8C312
:104C200098437D172328050098C38843828041114B
:104C300022C406C637E40090EFC0CF86832784F8ED
:104C400091C72244B24041016FC0CF894AC037E9C1
:104C500000901305092726C2EFF0BFF4B7E40090D7
:104C60001385C425EFF0FFF3B7E6009037E6009018
:104C7000130909279384C42537E80090B7E700900B
:104C8000938686111306C6160147C1453D45232864
:104C900028F923A697F8EFF0AFCE2324A4F82244F6
:104CA00092440249B24041016FC0CF83011106CE48
:104CB000EFF0FFF7B7E7009083A787F8A1C3700074
:104CC0002C00480002C202C4EFC08FD6B7C5002036
:104CD00037550020A247124832469385C5E913058F
:104CE000A5EA1D478146EFE04FD9B7E7009023A220
:104CF000A7F809C5F240054505618280B707009015
:104D000003C70722B7070218A385E7000F00F00FBB
:104D100001A0011156C2AA8A1305C00222CC26CADC
:104D20004AC84EC652C406CEAE843289368ABA8983
:104D3000F1212A840DC923040502A1C0EFF03FEF41
:104D4000130544002320540104CC232E44012320C6
:104D50003403EFF05FE6630809008347840293E7BA
:104D600047002304F4022285F2406244D2444249BF
:104D7000B249224A924A05618280B707009003C770
:104D80000722B7070218A385E7000F00F00F01A064
:104D900029C5011122CC37E4009006CE832884F87F
:104DA000AA870145638708023EC42EC032C29547D8
:104DB00063C0B70426CABA84EFE01FEB8947814677
:104DC0006302F50401468A85032584F8EFF0CFD30A
:104DD000D244F240624405618280B707009003C765
:104DE0000722B7070218A385E7000F00F00F01A004
:104DF00036868A8581464685EFF00FF3F24062449D
:104E00000561828026868A85032584F8EFF0CFCF5E
:104E1000D244C1B701114AC806CE22CC26CA4EC61A
:104E200037E900900DA0DC47C04793044400268575
:104E300083A90700EFF0DFDC1C50228582978347AF
:104E40008402918B85E7832709F9984369FF37E747
:104E500000908326C7F82328D9F8F240624423261D
:104E6000F7F8D2444249B249056182801C4CCE9782
:104E7000014781464E868145228563FAF9005CC070
:104E800000C8032509F9A685EFF0BFD46DBFEFF088
:104E90003FF055F9B707009003C70722B70702187C
:104EA000A385E7000F00F00F01A05D7152DC37BA57
:104EB0000520A2C4A6C2CAC04EDE56DA5AD85ED6B3
:104EC00086C662D466D26AD06ECE130ACAE6B7E945
:104ED000009037E90090B7EB009037E400908A84A7
:104EE000371B0318A54A83A709F903AD0700630F11
:104EF0000D14DC4703AD0700EFE02FE6EFE0EFE62F
:104F0000832709F8AA8C6364F5162320A9F80146C3
:104F10006370A519B3059D41032584F8EFF0BFC167
:104F2000EFE0DF9909EDF32740F1639C0714832735
:104F3000CBFF93E71700232EFBFE0F00F00F014677
:104F4000A685032584F8EFF0BF8151DD8247224515
:104F500063C7070EA24C83A74C0189C713854C0079
:104F6000EFF01FCAEFE06FE0832709F82A8D63672F
:104F7000F5102320A9F98247E3E3FAFC8A07D297C8
:104F80009C438287924783C68C0203A68C0193E6DA
:104F900016003387C7002384DC0223A2EC0023A879
:104FA0009C01B336F700636EED10330DFD40636D69
:104FB000CD1483A70C026685829783C78C02918BE0
:104FC000BDDF124683A78C013E960147814681458D
:104FD0006685EFF0FFDB25F5B707009003C70722D2
:104FE000B7070218A385E7000F00F00F01A003C761
:104FF0008C021367170092472384EC0223ACFC0059
:1050000063820714EA9723A2FC0023A89C019385DE
:105010004C006363FD0C03A5CBF8EFF09FBB05B715
:1050200083C78C02F99B2384FC0211BF83C78C02C7
:1050300013F727005DC7F99B2384FC0209B7924749
:10504000B24582978247E3CC07EE29B7EFE0EFD075
:10505000EFE0AFD1832709F8AA8C636AF50083A734
:10506000CBF8904313361600232099F965B5EFF07D
:105070007FDA232099F9EFE07F84D1B5EFF09FD953
:10508000CDBD8A07DA97054798C30F00F00F45BDDD
:10509000EFE0DF8283A709F9DC4703ACC700930D7B
:1050A0004C006E85EFF0DFB503478C029376470026
:1050B00085EE799B2304EC0203270C02628502979C
:1050C000BDBD6374FD00E38606EE93854C0003A529
:1050D00009F9EFF01FB0A5B503A509F9EFF07FAF0F
:1050E000B9BD6685652CA1BD83268C013307DD0023
:1050F0002322EC0023288C0163FFEC00EE8503A53E
:1051000009F9EFF01FAD4DBF93854C0003A5CBF817
:10511000EFF03FAC2DB5B38CAC4163E0DC0401474C
:1051200081466A8681456285EFF09FC651F5B707D3
:10513000009003C70722B7070218A385E7000F00F6
:10514000F00F01A0B707009003C70722B7070218A6
:10515000A385E7000F00F00F01A0EE8503A5CBF8B3
:10516000EFF03FA791BF19CD411122C42A8406C692
:10517000EFB05FB3404CEFB0FFB62285B24022449F
:1051800041018280B707009003C70722B7070218C2
:10519000A385E7000F00F00F01A0B7E70090938709
:1051A000C7FA3E879C43E3EEA7FE5043B305C70012
:1051B00054416307B5023306D5006387C7001CC19D
:1051C0006303A70008C3828037E60090032686FAAF
:1051D000E387C7FED043B2969C431CC154C1CDB7F0
:1051E000B29654C33306D700E39FC7FC37E600905E
:1051F000032686FA3A85E39FC7FC8280011122CC00
:1052000006CE26CA4AC82A84EFE02FB5B7E500903B
:1052100083A785FA63890710B7E7009083A447F94D
:10522000B3779400C1E79307F4FF59576360F70819
:1052300013777400930784002DE74EC652C437EAF3
:10524000009083294AFA63E0F91437E600900324BA
:10525000C6FA1306C6FA29A0184011C722863A8456
:105260005440E3EBF6FE03A785FA630E87100C406B
:10527000032906003387F6400CC2414621096378B2
:10528000E6043305F400937675008DCEB7070090E1
:1052900003C70722B7070218A385E7000F00F00F26
:1052A00001A013F787FF210763E8E706EFE00FE1AE
:1052B000EFB09FF90149F24062444A85D244424925
:1052C0000561828058C15CC0EFF03FED5440B38966
:1052D000D940B7E7009023223AFB03A707FA63E11E
:1052E000E90437E700908327C7F9D58C850744C0C8
:1052F00023200400232EF7F8EFE04FDC93777900AA
:10530000D9CBB707009003C70722B7070218A385B8
:10531000E7000F00F00F01A04EC652C4BA8705B7D0
:1053200023A037FB7DBFB7160090938786B113F794
:10533000770029CF13877700619BBA8635661306FD
:10534000863FB297E19B23A0070023A20700338783
:10535000E74037E600901306C6FA9CC2B7E8009013
:1053600037E8009037E50090B7040080D8C223A446
:10537000F5FA14C22322060023A0E8FA2322E8FA51
:10538000232A95F871BDB249224A0DB7138786B119
:10539000938686B165B7B249224A31BF39C1B7E7B2
:1053A000009083A747F90327C5FFB376F70099CE8E
:1053B000832685FF85CAB707009003C70722B70772
:1053C0000218A385E7000F00F00F01A0B7070090B7
:1053D00003C70722B7070218A385E7000F00F00FE5
:1053E00001A08280011193C7F7FF06CEF98F232E0B
:1053F000F5FE2AC6EFE06F9637E700903245832628
:1054000047FA8327C5FFB69761152322F7FAEFF015
:10541000DFD837E70090832787F98507232CF7F833
:10542000F24005616FE08FC9AA85814601460145BA
:105430006F00B0682E86AA8503A5C18009A033B786
:10544000C502011106CE22CC3386C50209CB3147F5
:1054500018C10144F2402285624405618280B28510
:1054600032C641202A847DD532468145EF00504A1C
:10547000D5B7AA8503A5C180ADA0AA8503A5C18023
:105480006F10F03D41114AC0179900701309C9B25D
:105490008327090022C426C206C6AA842E8491E767
:1054A0008145EF00903A2320A900A2852685EF00D0
:1054B000D0397D59631A25017D54B240228522449A
:1054C0009244024941018280130435007198E30639
:1054D00085FEB305A4402685EF003037E31F25FD88
:1054E000E1BF011126CA93843500F1984AC806CE5F
:1054F00022CC4EC652C4A104B1472A8963F3F400FA
:10550000BE8463C4040063FEB400B1472320F900E5
:105510000145F2406244D2444249B249224A0561FF
:1055200082804A85DD2097990070938929A983A7F5
:1055300009003E8421ECA6854A85EFF0BFF4FD57B3
:105540002A846312F50C03A40900A287C9EF55C48D
:10555000032A040081454A85229AEF00102F631E1A
:10556000AA081C404A859D8CA685EFF0BFF1FD5727
:105570006305F5081C40A6971CC083A70900D84303
:1055800035E79797007023AB07A215A01440858ECE
:1055900063C806042D47637DD70204C03307940017
:1055A0006396870223A0E9005C4014C35CC34A856C
:1055B000B1281305B4009307440061993307F540FF
:1055C000E309F5F43A94898F1CC0A1B7D8C3E9BFA9
:1055D00058406395870023A0E900D1BFD8C3C1BF5D
:1055E000A287404081BF3E84DC438DB73E87DC43C9
:1055F000E39E87FE232207005DBFB1472320F90009
:105600004A85292031B704C15DB782808280397113
:1056100022DC26DA4ED652D456D25AD006DE4AD8EA
:105620005ECEBA892E8A3284B684C28A468B0147FE
:1056300063580600370700803344E6001307D002A2
:105640002380E700937BFBFD930760048D4663880E
:10565000FB009387BBFB93B71700BE948946D687A0
:105660009308C100130881002687D2852286EF00A7
:105670001060930770042A896393FB0293F9190061
:1056800063850906B3099500014681465285A285C6
:10569000EF40603F11E14EC613070003A1A093073E
:1056A0006006B30995006306FB0093076004E31DE1
:1056B000FBFC83470900938707FD81EF0146814684
:1056C0005285A285EF40203C09C58547858F23A0E0
:1056D000FA0083A70A00BE9945BF9386170036C615
:1056E0002380E700B247E3EA37FFB2470647F250AC
:1056F0006254B38727411CC3D254B259225A925ADA
:10570000025BF24B4A854259216182802300C50029
:105710009307B00263D60500B305B0409307D002EB
:10572000A300F500A54763D4B70641111306F100A5
:105730003288294793083006B3E7E502B2867D1622
:1057400093870703A38FF6FEAE87B3C5E502E3C5D3
:10575000F8FE93850503930725001387E6FFA30F43
:10576000B6FE3E86BA85636D070101476365B800E2
:1057700013071101158FBA973385A7404101828025
:105780008348070005070506A30F16FFE9BF930727
:1057900000032301F5009385050393074500A3014A
:1057A000B5003385A7408280197186DEA2DCCAD895
:1057B0002E843A89D2D4D6D2DAD0DECEE2CCE6CA72
:1057C000328AB68AA6DACED6EAC8EEC62ACEEF006C
:1057D0003007832C05006685EF00102D832B040015
:1057E00002DC034B840113F70B10832709002A8C7A
:1057F00071CB138747002320E9009C43081098438E
:105800003AD0D8433AD298473AD4DC473ED6EF5004
:105810008040AA8D2E8D176700001307A7CB0329A0
:1058200007008329470093171D0093D417002324F2
:10583000B4052326A4054A86CE866E85A685EF503C
:10584000002041ED4A86CE866E85A685EF40003960
:105850006355A008014681466E85EA85EF40003811
:10586000635605009307D002A301F4049307700464
:10587000176900001309C96363E66701176900002F
:105880001309C9628D4793FBBBFF1CC82320740119
:10589000814972455687D2867018A285F92EFD5B24
:1058A000631575177D55F6506654D6544659B6594A
:1058B000265A965A065BF64B664CD64C464DB64D6C
:1058C000096182809D07E19B1387870083AD0700F4
:1058D00003AD47002320E9003DBF6E86EA866E8552
:1058E000EA85EF50C01505C563560D009307D00239
:1058F000A301F40493077004176900001309C95B3E
:10590000E3E267F9176900001309C95AA5BF5C40B3
:105910007D579379FB0D6391E70899475CC013E7C6
:105920000B4018C03C183EC002C254407245930759
:105930003103EE85DA88130841036A86EFF03FCD24
:1059400093077004D2552A89639FF904F55763C5FC
:10595000F5005C4063D8B708791B137BFB0FFD157E
:105960005A86130504052EDAEFF05FDA6257854692
:10597000AA89B307A7001CC863C5E6001840758F45
:1059800019C385071CC883473103E38407F09307D5
:10599000D002A301F404F5BD13077004E391E9F804
:1059A000BDFF8547A5BF93075006E3FA67FB930742
:1059B0006006631BFB025C40635BB0000CC881E7C0
:1059C0001840058B09CF8507AE971CC809A889E741
:1059D00018408546058B19C39386270014C82CCC24
:1059E000814955B7130B7006E25763C9F5001C4097
:1059F0000CC8858BEDD793871500C1BF054763445D
:105A0000B00009470D8FBA97C9B71C4013F707407C
:105A100015E3144872454A86D285829AE30475E9F3
:105A20001C40898B63960724F2574844E35DF5E6F2
:105A30003E8595BD13075006637F671928446C4463
:105A400001468146EF40200431E9724585461766DC
:105A500000001306A646D285829AE30575E56259D1
:105A6000D25763C527011C40858BDDDB7245E2867A
:105A70006686D285829AFD57E306F5E2014B3E9990
:105A8000930BA401BE89E35D2BF9724585465E86C2
:105A9000D285829AE30835E1050BF5B7D257634703
:105AA000F006724585461766000013062641D2852A
:105AB000829AE30975DFE25BD257B3E7FB0081E727
:105AC0001C40858BB1DF7245E2866686D285829A5C
:105AD000FD57E309F5DC014B130CA401BE89D25735
:105AE000B307F040634BFB00DE864A867245D285E1
:105AF000829AFD57E316F5F275B3724585466286C4
:105B0000D285829AE30035DB050BD1BF625B832926
