:020000042000DA
:100000006F00001C3A0900203A090020E409002092
:100010003A0900203A0900203A090020AA130020DA
:100020003A0900203A0900203A0900203A09002044
:100030003A0900203A0900203A0900203A09002034
:100040003A0900203A0900203A0900203A09002024
:100050003A0900200000000000000000000000003D
:100060000000000000000000000000000000000090
:100070000000000000000000000000000000000080
:100080000000000000000000000000000000000070
:100090000000000000000000000000000000000060
:1000A0000000000000000000000000000000000050
:1000B0000000000000000000000000000000000040
:1000C0003A090020000000000000000000000000CD
:1000D0000000000000000000000000000000000020
:1000E0000000000000000000000000000000000010
:1000F0003A0900203A0900203A0900203A09002074
:100100003A0900203A0900203A0900203A09002063
:100110003A0900203A0900203A0900203A09002053
:100120003A0900203A0900203A0900203A09002043
:1001300000000000000000000000000000000000BF
:1001400000000000000000000000000000000000AF
:10015000000000000000000000000000000000009F
:10016000000000000000000000000000000000008F
:10017000000000000000000000000000000000007F
:10018000000000000000000000000000000000006F
:10019000000000000000000000000000000000005F
:1001A000000000000000000000000000000000004F
:1001B000000000000000000000000000000000003F
:1001C00073700430971100709381C18517E200703D
:1001D0001302C2D4170104701301C1E2930200207C
:1001E00073A0027D970200009382C2E17390723087
:1001F000970200009382026D7390C27E73E0C07E0E
:100200009702000093820210739052309302F00321
:1002100073B0523073E05130996273B0023089622A
:1002200073A0023073F00232170500001305851128
:1002300097050000938505116300B50217E60500D8
:100240001306C66663FAC5008322050023A0550085
:1002500011059105E3EAC5FE17E5050013050565DF
:1002600097050070938505DA6300B50217E6007004
:100270001306C6CA63FAC5008322050023A05500F1
:1002800011059105E3EAC5FE17E50070130505C9E0
:10029000971501709385C58D6377B5002320050000
:1002A0001105E36DB5FEEF1020731765000013050F
:1002B000C567EF50501CEF602061EF106077970228
:1002C000000093822258739052309302F00373B06F
:1002D000523073E05130014581459D20EF10407B45
:1002E00001A0130000001300000013000000130021
:1002F00000001300000013000000130000000100C4
:0803000073005010F5BF00006E
:10034000411106C6EF10C053EF20906D15E937C577
:10035000002013058565EF20105DEF20F070B7C514
:1003600000203715002093858566014785461306D2
:100370000020130525F7EF20506CEF20106F01A02F
:10038000AA8537C5002013054564EF20D059C5BFA5
:10039000411122C4170401701304847506C6A28794
:1003A000970601709386C67C7D5798C3A107E39E8C
:1003B000D7FE814517D50000130545B5EFB0407550
:1003C00093173500A2979C439305106017D5000042
:1003D0001305C5B31CC09707017023AD0770EFB0BC
:1003E000207393173500A2979C439305902017D54F
:1003F00000001305A5B11CC49707017023A0077066
:10040000EFB0007193173500A2979C43B2401707D5
:1004100001702329076E1CC82244410182808D4748
:1004200063F3A700828037E70090832507F2B7D7F0
:1004300000208D660A05938787F39386066B3777CE
:100440009F5DAA97B385D50213071739B3B5E502A7
:1004500037C500209043A1811305852A6F20B04C39
:10046000130101BA232821452320614537E90400FF
:1004700037EB0090232C8144232A914423263145D5
:100480002324414523225145232E7143232C8143AC
:10049000232E1144232A91432328A1432326B14329
:1004A000231701009304CBFE1309F91FB7EA00904C
:1004B00037EA009037EC0090B7E90090B7EB009076
:1004C0001304E10103A5CAF3FD55EF30A0177DF930
:1004D000B7E7009003A507F4130600040C10930679
:1004E000E100E52C0356E100AA8511E11DE2B7C742
:1004F00000201385472BEF201043B7E700900546F7
:1005000003A507F4B7170020938627F6B285D52CEC
:1005100055BF832D0AF2930C0102014D83A60C00F6
:1005200003A74C0083A78C001306E02A9305ACFFB9
:100530001305CBFE36C83ACA3ECC231E0100EF603D
:10054000E0414246D24662478357C101850D03A56B
:10055000C9F12320BAF323A7C42A23A9D42A23ABA1
:10056000E42A239DF42A6363A90483C58BF1100850
:10057000834706002147BD8D93968501E186860558
:100580009397160093C7770093F5F50F63D4060091
:1005900093F5F70F7D176DF30506E31BC4FC3905D2
:1005A00023AEA9F0238CBBF06369A90413081D00D6
:1005B000131D08018357E100135D0D01C10CE36FAA
:1005C000FDF49307100363FEB70137F7EEEE130750
:1005D000F7EEB71711113383ED029387171163F705
:1005E0006702B7E70090054603A507F4B717002098
:1005F000B285938627F63124F1B5B7C7002013855D
:10060000C72EEF205032832D0AF24DB7B7E7009086
:1006100003A547F2814601468545EF20B068D1B772
:10062000797122D437E40090832744F206D69DCF17
:1006300026D24AD0FD29370500201305E541ED21DA
:1006400037E900908544032544F27D562C0002C40E
:10065000EF20105DE31995FE6C001305C9FE02C67C
:1006600002C802CA02CC02CEF129F1BF37C5002070
:1006700013054532EF20302B2254B250014545611D
:100680006F20503E35C9ADC901114AC837E9009005
:100690008327C9F206CEBDE326CAB7E4009083C71C
:1006A00084F2B9EF22CC4EC62326A9F22384B4F2F9
:1006B00001449309C00231A89C4385C38297050475
:1006C0009377F40F1DE103C784F263F0E70203257B
:1006D000C9F27F1534C55C45E5F36244D244B249A2
:1006E0000945F2404249056182806244F240D244A9
:1006F000B2494249056182800D4582807D55D5B75A
:10070000D2447D55F9BFB7E7009003C787F2AA87A7
:10071000637BE50037E700900325C7F21307C002AB
:100720007F95E7C482800145828009C55C45DC4332
:1007300081C782870D4582801D45828009C55C4541
:10074000DC4F81C782870D4582801D45828009C5A7
:100750005C459C5381C782870D4582801D45828000
:1007600009C55C45DC5381C782870D4582801D45E4
:1007700082801DC509476301E6020D476305E60057
:1007800019C63A8582805C459C5F89C782875C4533
:10079000DC5FEDFF1D4582805C45DC5BE5DF828729
:1007A0000945828009C55C45FC4381C782870D45A8
:1007B00082801D45828009C55C45FC4781C78287D0
:1007C0000D4582801D45828009C55C45BC4B81C7B3
:1007D00082870D4582801D45828019C55C45FC4F8E
:1007E00091C76206618682870D4582801D458280A1
:1007F00009C55C45BC5381C782870D4582801D4574
:10080000828009C55C45BC5F81C782870D458280B7
:100810001D45828009C55C45FC5F81C782870D4507
:1008200082801D4582800000000000000000000062
:1008300000000000000000000000000000000000B8
:10084000731191345D7106C012C216C41AC61EC857
:100850002ACA2ECC32CE36D03AD23ED442DC46DE44
:10086000F2C0F6C2FAC4FEC673D0E57E7350F67EBF
:1008700073D0B67E732520348A85EF100016D252CD
:100880007390427CC25273901234B25273902234ED
:1008900082401242A2423243C2435245E24572466E
:1008A00082561257A2576258F258064E964E264F5D
:1008B000B64F616173119134730020300100000064
:1008C000731191345D7106C012C216C41AC61EC8D7
:1008D0002ACA2ECC32CE36D03AD23ED442DC46DEC4
:1008E000F2C0F6C2FAC4FEC673D0E57E7350F67E3F
:1008F00073D0B67EF390D07E73700430D252739072
:10090000427CC25273901234B252739022348240AD
:100910001242A2423243C2435245E24572468256D7
:100920001257A2576258F258064E964E264FB64FAF
:100930006161731191347300203001A01300000035
:1009400097F203709382026C7390023417D1007097
:100950000321016502418242739012341260A26049
:100960003261C2615262E262726382731274A27473
:100970003275C2755276E276727786671668A66817
:100980003669C669566AE66A766B867B167CA67CF3
:10099000367DC67D567EE67E767F8A6F0961D652A9
:1009A000739002309240A2423243C2435244E24426
:1009B000724582551256A2563257C2575258E258C3
:1009C00072598649164AA64A364BC64B564CE64CD7
:1009D000764D865D165EA65E365FC65F13018107A3
:1009E00073002030130181F806C216C41AC61EC84F
:1009F00022CA26CC2ACE2ED032D236D43AD63ED8EF
:100A000042DA46DC4ADECEC0D2C2D6C4DAC6DEC87E
:100A1000E2CAE6CCEACEEED0F2D2F6D4FAD6FED8CE
:100A2000F322003096DA197102E206E40AE60EE8D3
:100A300012EA16EC1AEE1EF022F226F42AF62EF82E
:100A400032FA36FC3AFEBEE0C2E2C6E4CAE6CEE8BE
:100A5000D2EAD6ECDAEEDEF0E2F2E6F4EAF6EEF80E
:100A6000F2FAF6FCFAFE7EE197D2007083A24253BE
:100A700023A02200F322103416C0EF00D00C97D22E
:100A8000007083A2E25103A10200824273901234EB
:100A90001260A2603261C2615262E262726382736A
:100AA0001274A2743275C2755276E27672778667D6
:100AB0001668A6683669C669566AE66A766B867BEA
:100AC000167CA67C367DC67D567EE67E767F8A6F56
:100AD0000961D652739002309240A2423243C2431F
:100AE0005244E244724582551256A2563257C257BA
:100AF0005258E25872598649164AA64A364BC64B96
:100B0000564CE64C764D865D165EA65E365FC65F39
:100B1000130181077300203001000145828037D521
:100B20000020130585F48280B7E7009023ACA7F27C
:100B3000828037E70090B7E70090232A07F223A8C6
:100B400007F282803706019015711308C6E7B7F6E1
:100B5000002037F70020B7F70020A2CD930E887051
:100B60002E84130EC6E786CFA6CBCAC9CEC722FFF6
:100B700026FD1306C6E7138386619308475F9385B6
:100B8000C7630148831F250083120500031F45002A
:100B900083166500031785008317A500D3F70FD0D0
:100BA00053F702D05CE2D3770FD018E21CE6D3F6FD
:100BB00006D0537707D0D3F707D054E618EA5CEA9B
:100BC000630E08340317A5FF831685FF8317C5FF3F
:100BD000537607D0D3F506D05377C708D3F6B608B7
:100BE00053F607D0D3F7C70814EE58EE1CF21A8755
:100BF000C686B2879C6314639862D3F7D70811073F
:100C0000D3F7E7189106910727AEF7FEE314B7FE76
:100C10001306460205083905E316D6F737FF00909C
:100C2000B7F40020B7F30020B7020190530600F09C
:100C3000930ECF2F938444A7130FCF2F9383435F3B
:100C4000938202EA814F41431309E002168E930713
:100C50004002A6889E857A8801457F9EFFC4138640
:100C6000058087A70800130606CCF2869387C6FD89
:100C70003287946318639107C3F7E6781307070474
:100C8000E399D7FE1306062493864702E310B6FEC7
:100C9000D317F6A0530700F099C35387F7202720F6
:100CA000E8000505910811089105E31A65FA850F1A
:100CB000130F0F04E39C2FF937F80090FD7813868B
:100CC0000E041308C8D3938808481305000481450F
:100CD000930706FCC2863387B7002A9798631C6384
:100CE00091075397E7A019C3D307E7209CE2910629
:100CF000E393C7FE938505F8130808041305050858
:100D000013860708E39615FDB7EE0090B7D30020D1
:100D1000B7F2002037D30020B7FF0090FD785306CC
:100D200000F09384CE2B9383431F938ECE2B93821C
:100D300042A713034327938FCFD793880880014F8F
:100D40005549131E6F007E9E1E85968576881C6110
:100D500033861501F286938706FC32879463186305
:100D60009107C3F7E67813070708E399D7FE130640
:100D7000F67F050693860704E31FB6FCD317F6A09B
:100D8000530700F099C35387F7202720E800110587
:100D900011089105E31D65FA050F938E0E08E31205
:100DA0002FFB130801034285130600088145EF500D
:100DB000B03F1387F47FB7C700201307172887A613
:100DC000C7222A8813060708AA8693070780D30735
:100DD00000F0938707D8986393870708D3F7E70055
:100DE000E31BF7FED3F7D7181107910627AEF6FEDF
:100DF000E31DE6FCB7D60020B7C70020938606F6B1
:100E0000640837D6002007A68722938846012685E6
:100E1000130646F7930508089C623287C2879463DD
:100E200018639107C3F7E6785107E39AF5FED317E5
:100E3000F6A01CE1D304C62099C3D384F720910601
:100E40005386942011051106E398D8FC530400F052
:100E5000228993894401886091045375950811098A
:100E6000EFB0A006272EA9FE5374A400E39534FF2B
:100E7000530700F08147914415471C60D3F787184A
:100E8000D316F7A01CE081C65387F720BE848507E0
:100E90001104E394E7FEB7C70020B7C6002037C7A8
:100EA000002087A7062387A68723072647233EE639
:100EB0003EEC32E836EA91476383F40A93972400C4
:100EC0008A97DC67D317F7A0D9EB37E40090832724
:100ED00004F36355F000FD172328F4F28D4763886F
:100EE000F40689476393F404B7E7009083A647F3B9
:100EF00005476386E60623AAE7F2B7E7009083A7D3
:100F000087F399C326858297FE406E444E49BE49B9
:100F10007A74EA742685DE442D618280232C0E00CB
:100F2000232E0E0023200E02D9B18547E397F4FC4F
:100F3000832704F3E34AF0FCB7E7009083A787F325
:100F400099C32685829791472328F4F275BFB7E7A6
:100F5000009003A747F301C723AA07F279BFFD5406
:100F600065B7B7E7009003A5C7F319C16F200070FC
:100F70008280797106D66536EF00F031EF20402A85
:100F80006312051A4808EF003032EF20602963151C
:100F9000051ED24522D499C537C5002013058539D1
:100FA000EF20601837C500201305453AEF20A01741
:100FB0000145EFF04FF537E400902320A4F46308D7
:100FC00005183707019013074758854518D5EFF0E6
:100FD0007F84AA8563150518032504F4EFF0EFF468
:100FE000AA85631E0514032504F4EFF02FF5AA85E6
:100FF0006311051A032504F481450947930620036C
:101000000146EFF0CFF4AA856315051A032504F411
:1010100081450947930620030146EFF06FF4AA8546
:101020006311051A032504F48567231801009387CB
:1010300017C00548094785453400314602C62314C8
:10104000F100231501012308E100EFF06FFAAA85F2
:1010500063190514032504F493051003EFF08FF4CE
:10106000AA8563180516032504F49305000C0546AC
:10107000EFF06FF4AA8563160516032504F4EFF06C
:10108000AFF4AA85631705160D46032504F4B2854F
:10109000EFF02FEEAA856316051637E500901305CD
:1010A000C5F3EF20A056AA8563150516054603254E
:1010B00004F4B7160020B285938626F6EFF06FF49D
:1010C000AA856310051637C500201305455DEF207E
:1010D0008005D1452145EF20802CB7E7009023A261
:1010E000A7F263080514B7C50020370500209385D3
:1010F000C562014791461306004013050546EF20DF
:10110000C0130566B7C5002037050020130606800A
:10111000938585631305056201479546EF20E0112D
:10112000225401A8AA8537C5002013054536EF10C3
:10113000907F0145EF200013B2504561828037C592
:10114000002013050540EF10107E2254DDB737C58F
:1011500000201305C53BEF10107D2254D9BF37C5C1
:1011600000201305053EEF10107C01452254EF20AE
:10117000600FB25045618280B7C70020AA851385F1
:101180000738EF10507A0145EF20C00DB25045618D
:10119000828037C5002013050542EF10D078225415
:1011A00049BF37C500201305454BEF10D0772254B7
:1011B00049B737C5002013054545EF10D0762254B6
:1011C0008DBF37C5002013054548EF10D075225458
:1011D0008DB737C500201305054EEF10D07422548B
:1011E00089BF37C5002013058550EF10D0732254F6
:1011F00089B737C5002013050553EF10D07222546C
:101200000DBF37C5002013058555EF10D07122544E
:101210000DB737C5002013054558EF10D070225484
:1012200009BF37C500201305855AEF10D06F22542F
:1012300009B737C5002013058560EF10D06E225422
:10124000CDBDB7070090411103A74722B706009014
:1012500002C6FD5783C606226309F700B7070218C6
:10126000A385D7000F00F00F01A0B7070218A385D0
:10127000D7000F00F00FB24799E773F000817300B9
:101280005010B247FDDB4101828041111167B71751
:10129000002022C426C206C6130707889387272486
:1012A0002A842322C5FAAE84232EE5FE2326F5F8F0
:1012B000130600081305C5F08145EF50E06E1305D5
:1012C00084F0232494F0B24022449244410182806D
:1012D0003706009083470622B7060218A385F6005A
:1012E0000F00F00F3707009083274722850723223E
:1012F000F72205476383E700828003C7B600834770
:101300000622E38BE7FEA385F6000F00F00F01A095
:10131000370700908327472281EFB707009003C764
:101320000722B7070218A385E7000F00F00F01A0FE
:10133000FD172322F72299E7B7070218A3850700B4
:101340000F00F00F82804111B707009003C70722FA
:1013500006C6B7070218A385E7000F00F00FF327B2
:1013600040F19DE3371703188327C7FFF99B232E0E
:10137000F7FEEF205067B7070218A38507000F009C
:10138000F00FB24041018280371703188A07BA97DD
:10139000014798C3EF203065B7070218A3850700FF
:1013A0000F00F00FB240410182800111B707009099
:1013B00003C7072206CEB7070218A385E7000F0070
:1013C000F00F612BB787EB519387F751B337F502D5
:1013D0003707031895831107B7060318104332C265
:1013E000904232C418433AC6124632476304E600BC
:1013F000944236C4B246A2453386B7003337F6006E
:10140000369763FAE606F32740F1A1C7B7560318EB
:101410008E07B697FD5694C39386470098C290C333
:10142000EF20F01D11CDF32740F19DEF3717031882
:101430008327C7FF93E71700232EF7FE0F00F00F57
:10144000B7070218A38507000F00F00FF2400561EF
:101450008280B7070318A107FD5694C3B706031887
:10146000B10698C290C36DBF371703188A07BA97A1
:10147000054798C3E1B76314D700E3E6C5F8814692
:101480003706031814C21307460014C314C2732787
:1014900040F119EB930686007D5690C2370603187B
:1014A000310618C29CC2ADBF375603180E073297DB
:1014B0007D5610C31306470014C21CC395B7011113
:1014C00006CE6129B787EB519387F751B337F50201
:1014D0003707031895831107B7060318104332C264
:1014E000904232C418433AC6124632476304E600BB
:1014F000944236C4B24622473306F7003337E6003B
:101500003697F32640F163950618B7060318A1062F
:10151000FD558CC2B7050318B10598C190C23717A5
:1015200002188346E70193F6E60F230FD7008346A0
:10153000E70193F6F60F230FD700B706021803C78B
:10154000060005833D8BD44205C7D582BD8A368609
:10155000636FD714B716021803C7F6013317C70015
:101560001377F70F3357C7401377F70FA38FE600B2
:10157000B716021803C7D60113671700A38EE6003B
:1015800037060318814614C21307460014C314C259
:10159000732740F17DE3930686007D5690C237069F
:1015A0000318310618C29CC2371702188347D701A7
:1015B00093F7E70FA30EF7003707021883470700DA
:1015C0008583BD8B584385C755833D8BBA8663EEB3
:1015D000E70C371702188347F701B397D70093F743
:1015E000F70FB3D7D74093F7F70FA30FF700B7174D
:1015F000021803C7E7011377E70F238FE70003C73C
:10160000E7011377F70F238FE70003C7D7011367AD
:101610001700A38EE70003C7E7001377E70F2387C0
:10162000E70003C7E700136717002387E7003707C2
:101630000218834707008583BD8B584385C75583B0
:101640003D8BBA8663E1E706371702188347F70038
:10165000B397D70093F7F70FB3D7D74093F7F70FA8
:10166000A307F700371702188347D70093E717003F
:10167000A306F700F24005618280375603180E0773
:1016800032977D5610C31306470014C21CC329BFEE
:10169000B75503188E06AE96FD558CC2938546004D
:1016A00098C190C2ADBDBE8645B7BE861DB73A860D
:1016B00055B501113707021806CE22CC26CA83473A
:1016C0000700584385835583BD8B1376F700BE868C
:1016D0006373F600B2868547B397D700FD1721479D
:1016E000158F13F6F70F9D461377F70FB704009089
:1016F00063F3C600B6878546B396E60093F7F70F07
:10170000FD16B397E700D58F2380F4223707021820
:1017100083470700584385835583BD8B9375F70036
:10172000BE8637E6009063F3F500AE868547B39733
:10173000D700FD1793F6F70F1D476373D700BA87DD
:101740002302F6F4737004309D3BB7E70090054721
:1017500037040090238AE7F423220422EFF04F9EFF
:10176000EF2070280327442202C6FD57630BF700C1
:1017700003C70422B7070218A385E7000F00F00F84
:1017800001A003C70422B7070218A385E7000F00D2
:10179000F00FB24799E773F0008173005010B24721
:1017A000FDDBF2406244D244014505618280F327AB
:1017B000203463CD0700B707009003C70722B7079F
:1017C0000218A385E7000F00F00F01A0D207D18314
:1017D00045476371F706370602180347060005837D
:1017E0003D8B544221CB938707408A073E96D58292
:1017F00083473600BD8A93F7F70F13F6F60FB7E568
:1018000000906374D7001376F70F2147118FB3D779
:10181000E74093F7F70F03C745F4637DF700B70779
:10182000009003C70722B7070218A385E7000F003F
:10183000F00F01A0828001456FD0850437C50020DC
:10184000130545676F40907F1387410818C1938740
:1018500041C89CC1930700101CC28280138701C13C
:10186000B707009018C1938707239CC19307001006
:101870001CC2828037C50020130545696F40107C6B
:10188000014582803971A16726DA6C08AA841305A4
:10189000000206DE3ECE22DC4AD84ED61524724423
:1018A0003309940237460F0033349402130606249A
:1018B00081464A85A285EF70A04E37460F00AA8464
:1018C000AE894A85A285130606248146EF7070040E
:1018D0004D8D49C113891400B33499003384340108
:1018E000B7070318910737070318944336C4144306
:1018F00036C69C433EC8A246C2476384F6001843DE
:101900003AC6B706031842489106B7050318324590
:101910009C423ECA9C413ECC9C423ECE5247F2473E
:101920006304F7009C413ECCF24762473306A74070
:101930003337C700B3870741998FE3EB87FC631404
:10194000F400E36726FDF2506254D2544259B25972
:101950002161828026894E8461B70111A1676C00E4
:101960001305000206CE3EC6A12AF24032450561AB
:10197000828009BF411106C622C426C24AC0F3258F
:1019800020347329907CF32410347324303437C509
:1019900000201305456AEF40706A37C50020CA85EC
:1019A0001305C56BEF40906937C50020A685130568
:1019B000456DEF40B06837C50020A2851305C56EA0
:1019C000EF40D067EF10B04FAA8537C50020130550
:1019D0004570EF40B06601A082808567FD173377C0
:1019E000F500AD4663E1E602B707019093874768CB
:1019F0000A07BA979C438DC7411106C68297B24029
:101A0000014541018280630FF7004111B727002093
:101A100006C6938747978297B2400145410182806D
:101A200001458280B707019083A7476BF1F7CDBFCF
:101A300073E0A07CC16773A0A77C0F00F00F0F10AC
:101A40000000B707019093874768372700209386E7
:101A500047031307479798C39107E39ED7FEB7073D
:101A60000218A3850700D84383C6070093F6160E15
:101A70002380D700518383C60700798B558F23803D
:101A8000E700996773B00730896773A007308280D9
:101A900082808280828019C5B7E7009023A4A7F4D2
:101AA0000145828009458280B7E7009083A787F4CB
:101AB00091C79C4391C382870145828009458280FA
:101AC000B7E7009003C7C7F4AA8719CF0D4563FE97
:101AD000E70037E70090032707F5D1467F97D7C483
:101AE00001455C439CC18280054582801DC11C4923
:101AF0008DC383C7B70021476389E70031476381FE
:101B0000E70215476389E70089472380F50001450F
:101B100082800D45828091472380F50001458280B7
:101B2000C1472380F500E5B713351500FD57330590
:101B3000A0402380F5000D8982804111154522C403
:101B400026C206C6B28436842D35B7070090938727
:101B5000C7042382970080C7B240224492440145C3
:101B60004101828015CD411122C406C62E8415453F
:101B700099E90135B7070090A3888704B240224451
:101B8000014541018280F5331545EF10406EB707DE
:101B90000090A3888704B24022440145410182801D
:101BA0000D4582801DC11C498DC303A7970098C1B4
:101BB00003A7170118C203D7970101452390E60038
:101BC00083C7B7012381F60082800D458280B70666
:101BD000009093878603D8430507D8C303C6070040
:101BE000930500046303B6069305000C6308B60072
:101BF00037C50020130585716F10E0524D46B28540
:101C0000354863FAE500370700901307C702084319
:101C1000410508C3CCC3370700901307C7048345A9
:101C200047009DC19C478A07B3D707039386860365
:101C300093F7F70F93F5F70F636EF600DC4263E559
:101C4000B7001C4791C38287828013064002B28589
:101C50001D4845BF9375F60FDC42E3E7B7FED5B7E5
:101C60001DCD411122C426C206C604492A8495C846
:101C7000C84009CD1C4199C73E85EF103003C840CC
:101C800023200500EF10900223A204002285EF100C
:101C9000F0010145B24022449244410182800D4549
:101CA00082800D45C5BF5DC5011126CA06CE1C49FF
:101CB000AA84DDC322CC83C6D70045476385E606E8
:101CC0004AC84EC603C75701D54713F9F50F01445B
:101CD0008549631DF700B1A06384370705040545F6
:101CE0001374F40FEF10A058630F2401DC4CDC4395
:101CF000E5F74145BD39050405451374F40FEF10B0
:101D00000057E31524FF4249B249B707009003C5C5
:101D100017051345150012056244F240D2440561CF
:101D200082804249B249DC4CC04311CC8547E31E56
:101D3000F4FC1395350035392285EF104053F1B787
:101D40002145053961BF1395450025310545EF1043
:101D5000005265BF0D4582800D45C1B719C185454B
:101D600099B70D45828005C1411122C42E84854555
:101D700006C6153F09E5B707009023A08704B240C7
:101D80002244410182800D45828001CD411185456B
:101D900006C6113FB7070090B24023AE07024101CB
:101DA00082800D4582800DCD41115C4D22C4D84307
:101DB00006C685472E846302F70213050002553ECE
:101DC000B707009083C71705414581C7231004005A
:101DD0000145B2402244410182804145593ECDB780
:101DE0000D45828039C141115C4D22C4D84306C6DD
:101DF00085472A84630FF7004145A53EB707009049
:101E000083C7170591CF22852244B2408545410101
:101E100059BD2145B93EB707009083C71705E5F7BF
:101E2000B24022444145410182800D45828039C142
:101E300041115C4D22C4D84306C685472A84630FEE
:101E4000F70041453D36B707009083C7170591CF8E
:101E500022852244B24085454101B1B52145113E5C
:101E6000B707009083C71705E5F7B2402244414504
:101E7000410182800D45828049C1411126C206C6BA
:101E80000449BDC45C4D22C4D84385472E846304F5
:101E9000F7044145F93CB707009083C71705414552
:101EA000B9C3231004002301040083C71401AD1734
:101EB000B337F0008507A300F40083C79400BD1773
:101EC000B337F00085072300F4002244B240924467
:101ED0000145410182802145693CB707009083C7D5
:101EE00017054145DDFF2244B24092444101828002
:101EF000B24092440D45410182800D45828059C90E
:101F0000411122C426C206C604492A84B5CC5C4DC0
:101F1000D84385476306F70613050002EFF07FA557
:101F2000B707009083C717054145A5C31C48A9CF33
:101F300083C6270135476369D70483C6470109472C
:101F40006364D70403C73701914763EFE702854510
:101F50002285913B1DE903C7240183C74401238BDC
:101F6000E400238CF40085452285353B19ED83C7B9
:101F70003401A38BF400B240224492444101828098
:101F80004145EFF01F9F69BF0D45B2402244924486
:101F9000410182800D45828051C9411122C426C26F
:101FA00006C604492A84ADCC5C4DD84385476305F9
:101FB000F70613050002EFF0DF9BB707009083C719
:101FC00017054145B9CF1C48A1CF83C6A7003147AB
:101FD0006368D70403C6C7009D4663E3C60483C78E
:101FE000B700636FF7028545228575391DE903C780
:101FF000A40083C7C4002387E4002388F400854538
:102000002285553119ED83C7B400A387F400B2408F
:1020100022449244410182804145EFF09F9571BF77
:102020000D45B24022449244410182800D45828098
:102030006309050E411122C406C6937717002A844E
:10204000BDE3937727008DEB118B59E32285453D46
:1020500005E15C4CD8438547630FF7064145EFF037
:102060005F91B707009003C51705134515001205CA
:10207000B24022444101828093072003639FF6020D
:102080001C48118BE1D79D462389D70061D30547B2
:102090006373C7068946630BD60611476365C70697
:1020A000238A070065B71C49C9DF1305D007636899
:1020B000B5029145A389B70069B737C5002013055C
:1020C0008575EF104006B24022440D4541018280E3
:1020D0001C48D5FFA5BF2145EFF0BF8959B71305AF
:1020E000A00F637EB5001305401F6364B5028945E8
:1020F000A389B700B9B70947238AE70081BF8D4597
:10210000A389B7003DBF238AD70089B7238AE70098
:1021100035BF1305803E6368B5008545A389B700C8
:102120000DB70D458280A389070021BF011106CE9E
:102130002EC63DC993D7050122CC93F7F70F2A8409
:102140000D456365F5045C4CD84326CA8547630397
:10215000F70413050003EFF0DF81B70400909384C8
:10216000C40483C754009DCB5C4CD84385476301AE
:10217000F7044145EFF0EFFF83C7540085C3228584
:102180006244D244F2408D45056131BE6244F24062
:10219000056182806145EFF0CFFDC1B76244F24036
:1021A000D244414505618280F2400D45056182803F
:1021B0002145EFF00FFCC9B7411106C626C225C95B
:1021C000854522C42A84C534AA840545EF10200A17
:1021D00095EC5C4CD84385476300F7041C489DC7C9
:1021E000B71603023717000293860681130747814B
:1021F000A3A4D700A3A8E700A3A6D700A3AAE7003B
:102200002244B24026859244410182802244B24059
:1022100026859244410182802145EFF08FF5B70772
:10222000009083C71705DDFBC1442244D9BF8D440C
:10223000B240268592444101828063080510411115
:1022400022C406C6937717002A84B5E39377270044
:102250008DEB118B49E32285813305E15C4CD8433A
:102260008547630DF7064145EFF0AFF0B7070090E3
:1022700003C51705134515001205B240224441015C
:10228000828093072003639DF6021C48118BE1D7DF
:102290009D462385D70061D31D476361C70A37F781
:1022A00000201307C7630A063A96184202871C49A2
:1022B000D1DF09456368B5028D45A385B70079B7BD
:1022C00037C500201305C579EF00F065B240224400
:1022D0000D45410182801C48E1F3B5BF2145EFF077
:1022E0004FE969B71145637CB5002145637CB504AE
:1022F00041486369B804B145A385B70081BF9545DE
:10230000A385B700A1B71D472386E700A9B71947E2
:102310002386E70089B715472386E7002DBF1147BD
:102320002386E7000DBF0D472386E7002DB705473D
:102330002386E7000DB72386070031BF09472386B0
:10234000E70011BFA385A70011B70D4582800111D9
:1023500006CE4AC86308050E22CC4EC68329050165
:102360002A846388090883A74900C1C75C4D26CA2F
:10237000D84352C48547AE843289630DF70841457E
:10238000370A0090EFF0EFDE130ACA0483475A00C1
:10239000C1CF91C4333620013306C040F18C85454E
:1023A0002285EFF05F902A8929ED5C4CD843854760
:1023B0006306F7084145EFF0CFDB83475A00ADC70E
:1023C00083A7490013F7040E41468988A383C700F9
:1023D0002384E70023839700B70600906244F2400D
:1023E000238CE602D244B249224A4A854249056119
:1023F00082800D496244F240B2494A8542490561F2
:1024000082806244F240D244B249224A4A8542491B
:10241000056182802145370A0090EFF08FD5130ABD
:10242000CA0483475A00B5F741496244F240D24496
:10243000B249224A4A854249056182802145EFF02E
:102440004FD3A5BF0D49F2404A85424905618280BC
:1024500071CD411122C426C206C604492A84C1C4D2
:1024600003C79400930707FF93F7F70F894663ECC0
:10247000F60683C7D4006395E70203C714019307E8
:10248000C7FE93F7F70F8D4663EFF60483C7540139
:1024900001456390E706B2402244924441018280A4
:1024A0005C4DD8438547630FF7064145EFF06FCC8D
:1024B000B707009083C717054145F1DF03C79400B4
:1024C000C9476307F70885452285EFF0CFFD61F521
:1024D00003C7D400C1476308F70883C79400A386E5
:1024E000F4000448D9F8B240224492440D45410119
:1024F000828022858545EFF00FFB1314850183C789
:10250000540151476184638EE702DD4603C714011D
:102510006380D702A38AE4002285B2402244924419
:10252000410182802145EFF0CFC459B70D4582802B
:10253000D547E311F7FE2945EF00705303C7140197
:10254000D1BF13051005EF00905203C71401D9B78E
:1025500085452285EFF02FF51DFD89452285EFF099
:102560008FF415F98DB71545EF007050BDB759CDF3
:10257000011122CC4EC606CE832905012A84638927
:10258000090826CA4AC8B6843289B9C19C41A3A4A5
:10259000F900EFF07FA031E5631D0902B9E822855B
:1025A000453D21E15C4CD8438547630DF704414527
:1025B000EFF02FBCB707009003C51705F240624447
:1025C00013451500D2444249B24912050561828083
:1025D00005C283270900A3A8F9002285EFF03F92E6
:1025E00055DDD2444249F2406244B24905618280DD
:1025F00095C283D70400A39CF90083C72400A38D50
:10260000F90071BF2145EFF0CFB66DB70D4582805F
:102610000D45D1BF0D45D2444249F1B71DCD0C49FE
:102620008DCD83C79501BD8BB70608023707000221
:1026300093860661614693E7070713074761A3A4E2
:10264000D500A38DC500A38CF500A3A8E500938653
:10265000950113861501A50519BF0D45828041110D
:1026600006C626C251CD22C404492A84C5C04AC028
:1026700003A94400630C09061305F00FEF00D062B4
:10268000DC402320A900984349C7FD572384F40068
:102690002285EFF07FB2AA8401C922440249B240E8
:1026A000268592444101828022858D3FAA8475F55A
:1026B00037040090130484035C44E5F3B72600203C
:1026C00037C500209386E6BC1305457E0147514679
:1026D0008545EF00102948C469F137C5002013056E
:1026E000857FEF0050242244024955BF7145EF0019
:1026F000B05BC8C02A8949F1A9442244024945B7C0
:102700008D44B24026859244410182808D4422440A
:1027100079B73E85EF00905923A20400F1BF011163
:1027200006CE22CC4DC126CA4EC683290501AA84F5
:10273000638909084AC837090090130989030325EA
:10274000C9002E8401C583470901A1E3954763EEC3
:102750008706B7F700209387C7650A043E941C409C
:1027600082874147D147A384E900A388F9002685E1
:10277000C5312A841545EF00902FD2444249B24911
:102780002285F240624405618280FD55EF0090266B
:1027900005E1230809005DBFE147A38DF900C1BF32
:1027A000D147A388F900E1B7C147A384F900C1B7B5
:1027B00037D5002013050582EF00F0162308090025
:1027C00071B7D244B2490D4465BFD2444249B249BF
:1027D0000D447DB7011106CE22CC630405104AC812
:1027E0004EC6832905012A89638B090E85472E84ED
:1027F0006380F50689476394F50203C729019D4765
:10280000631DF70426CAB704009093848403C84468
:1028100001C583C70401B5CB4147D54759A8938764
:10282000D5FF93F7D70F91EB83C7A9001D47639698
:10283000E70203C729016312F70226CAB704009012
:1028400093848403C84429C983C70401B1E735A828
:1028500003C7A9009D476300F70237D50020130581
:102860004584EF00500C19444249B2492285F24098
:1028700062440561828026CAB70400909384840371
:10288000C84435C183C70401B9EFFD55EF00D0132B
:1028900031ED85472388F400954763E18704B7F756
:1028A0000020938747670A043E941C40828745476F
:1028B000D547A384E900A388F9004A85513E2A84BC
:1028C0001545EF00D01A2285F2406244D2444249B5
:1028D000B249056182804147D147E1BFD2444249B4
:1028E000B2490D4461B74547D147E1B737D500201C
:1028F00013050589EF00300369BF630E0510B1476A
:10290000630DF60063F5C700B5476316F600B70719
:10291000009023A6C70401458280011122CC06CE77
:1029200026CA2A84C5CA83D58600D8425C4C904208
:102930003AC42316B100D84332C285476301F70C6D
:102940004145EFF00F83B70400909384C40483C71C
:102950005400D5CB85452285EFF0EFB42DE55C4CD6
:10296000D8438547630FF70A4145EFF08F8083C74F
:102970005400D1CB85452285EFF0EFB229E55C4CC0
:10298000D8438547630BF7084145EFE09FFE83C7B7
:102990005400B5CB85452285EFF0EFB00DE55C4CDA
:1029A000D84385476303F7084145EFE09FFC83C7A1
:1029B0005400B1CB834741000D456366F500854562
:1029C0002285EFF04FAEB1479CC0F2406244D24442
:1029D000056182809247370700FEB7160B00F98F1A
:1029E000938626C00347C100D58F136727003EC2D8
:1029F0005C4C2306E100D8438547E313F7F42145F7
:102A0000EFE03FF789B7B1479CC0F2406244D2443F
:102A10004145056182800D4582802145EFE07FF5CB
:102A2000BDB72145EFE0FFF499B72145EFE07FF412
:102A3000BDBF011126CA06CE0451E1C822CC5C4DAF
:102A40002A84D5CF8545130500024AC8EF3060239C
:102A50002A8961C94EC613078003B7F700202312E5
:102A6000E4029387C76898405CC408C801CB154549
:102A7000EFE03FF01545EF00807F0450B70900906C
:102A800085479389C904A382F9009C4489C71545E9
:102A9000EFE03FEE0450DC4081C71545EFE07FEDED
:102AA0005C4CDC4395C305476386E7064145EFE090
:102AB0005FEC83C759009DC7014562444249B24952
:102AC000F240D244056182801545EFE09FEA5C4CFC
:102AD000D8438547E31CF7FC2145EFE09FE983C716
:102AE0005900F9FB4A85EF30201EF24023280400EC
:102AF00062444249B249D244414505618280624400
:102B0000F240D2440D4505618280F240D2440D4529
:102B1000056182802145EFE0DFE583C75900C5FBF1
:102B2000D1B729456244424961BF6307051041118D
:102B300022C426C206C604492A84B5C4DC40A5C7FF
:102B40009C43B5C35C4DD8434AC085476303F70631
:102B500013050002EFE0FFE1370900901309C904F3
:102B6000B7070090938787038346590003C7070080
:102B7000ADC293060004630AD70A9306000C6308EB
:102B8000D70637D500201305458B712BDC4003D7C2
:102B9000470019C323920700B240224402499244DD
:102BA0000145410182800D45B240224492444101D9
:102BB00082804145EFE0FFDB370900901309C9042B
:102BC000B7070090938787038346590003C7070020
:102BD000CDF21377F707930700046307F70037D5A3
:102BE00000201305458B81234145024975BFDC4315
:102BF0003547B387E702C207C183D8400355470072
:102C000063F5A7002312F7003E8559D55C4CD843E5
:102C100085476305F7021205EFE0BFD5034559006C
:102C2000134515001205024941B7DC431D47B38720
:102C3000E702C207C183D1B70D4582800E05EFE0E0
:102C40005FD3E9BF397106DE4AD85DCD22DC26DAD2
:102C500004492A84C5C803A8440083270800DDC3AB
:102C6000B70700909387C70403C75700414979C34A
:102C70004ED603478800AE891377070C9305000CE6
:102C8000631AB7089843B147631DF70A03C7940056
:102C9000C547631BF70803C71401D5476316F70838
:102CA00083C7A4001D476395E70A52D403CA2401D1
:102CB000631FFA0803C7B400A1476318F70A83C764
:102CC0003401C5E783C7C40009476399E70803C710
:102CD00044016315F708B707009056D2938A87031B
:102CE00083C70A00130700046388E7081307000C72
:102CF000638BE71437D50020130585A62D21225AB2
:102D0000925A31A86254D2540D49F2504A85425920
:102D10002161828037D500201305058F29211949AB
:102D20006254D254B259D5B737D500201305C59691
:102D3000DD2EF5B76254F250D2544A8542592161D2
:102D4000828037D5002013050593F12EC9BF225A82
:102D500037D500201305859AF926D1B737D500203D
:102D60001305C5A2C926225A5DBF37D50020130519
:102D7000059F552E225A65B79D47B387C702231278
:102D8000F800228536C655332A8969E1DC4003D72D
:102D900047005AD033474703B246137BF70F630D02
:102DA0000B0A66CA832C040163800C0E370A00905C
:102DB000130ACA025ECE62CC1374F70F832B0A008B
:102DC000032C4A009314440063F88B0B6AC88327D2
:102DD0008A00338D740136C6B38577016377AC09F9
:102DE000330D7C416A864E85EF30D04633868B4169
:102DF00026963385A9018145EF30103BB24683A763
:102E00004C0003C7670023208A018947630BF70042
:102E100009C8CE853387990023A60500C105E39D27
:102E2000E5FE424D83A74A00818F23A2FA0023903A
:102E300066016254D254B259225A925A025BF24B42
:102E4000624CD24CD9B5354AD28705BF6254D254B0
:102E5000B259225A925A55BD239006006254D25458
:102E6000B259225A925A025B4DB526864E85EF30F2
:102E7000703E6A8CB24661B7268681454E8536C65D
:102E8000EF309032B24679BF6254D254B259225ACE
:102E9000925A025BD24C8DBD397106DE4AD859CDAB
:102EA00022DC26DA04492A84C1C8D84051C71C4311
:102EB000C1C7B70700909387C7044ED6AE8983C5B4
:102EC00057004149D1C18345870093F50504CDC121
:102ED0008C43B1476392F50883C59400C54763935B
:102EE000F50852D403CAA4009D476319FA0883C5A4
:102EF000B400A147639BF50883C5C4008947639F5D
:102F0000F51656D2B70A0090938A8A0383C70A003F
:102F1000930500046382B7089305000C6387B71616
:102F200037D50020130545C0FD2A225A925A194967
:102F30006254D254B25921A06254D2540D49F25075
:102F40004A854259216182806254F250D254B2596A
:102F50004A8542592161828037D50020130545AE4C
:102F6000D922F1B737D500201305C5B16D2AC1B7F5
:102F700037D50020130585AA7D2255BF37D50020FF
:102F8000130545B54D22225A5DB737D500201305EC
:102F900085B9512A225A61BF9D47B387C7022312C0
:102FA000F700228536C6EFF05FB82A8971E1DC4070
:102FB00083D74700B246B3C7470313FAF70F630737
:102FC0000A0A5AD0032B040163060B14B7040090BD
:102FD0009384C4025ECE13F4F70F984083AB440091
:102FE00013154400637E77119C443A95BA9763E1C8
:102FF000AB0A6308041229474E887F18E4C4990776
:103000004E870396070083A567002310C700039629
:1030100027002907231CC7FE03964700232EB7FE6F
:10302000231DC7FEC107E31E07FD83274B0003C70F
:10303000670088C08947630CF7002947CE87FF17D0
:10304000E4C4CE8523A30500A905E39DF5FE83A76F
:103050004A00818F23A2FA00239046016254D25481
:10306000B259225A925A025BF24BD1BD239006000C
:103070006254D254B259225A925AD1B537D500204F
:10308000130505BD4D20225A5DB5354AD28731B7AB
:103090003387EB40135547001DC929474E887F18D9
:1030A000E5C499074E870396070083A567002310A0
:1030B000C700039627002907231CC7FE0396470075
:1030C000232EB7FE231DC7FEC107E31E07FDA94738
:1030D0004E877F17F5C43306A4403306F6023A85BF
:1030E000814536C6EF30500C83274B0003C767007D
:1030F00023A074018947B246E30BF7F41DFC81BF9E
:1031000029463306C40281454E8536C6EF30D009C4
:10311000B24635BF6254D254B259225A925A025B17
:1031200031BD88C02DB7397126CA44102ED2A6856C
:1031300006CE22CC26C632D436D63AD83EDA42DC87
:1031400046DEEF3040722A8437D50020A68513056D
:10315000C5C3EF304071418DF2406244D2442161D9
:10316000828001112E8806CEAA85BA873685630E25
:1031700008000547C286631CE8022A876800552EAE
:1031800011E93245F240056182802A878146680054
:103190004D2665D9B707009083A787226357F000B3
:1031A00037D50020130585C5BD3F0145E1BFB707F1
:1031B000009083A78722E35AF0FE37D5002013053D
:1031C00005C4953701457DBF411106C6D12E01E5E5
:1031D000B24041018280B707009083A787226344F1
:1031E000F0007D55F5B737D500201305C5C6253F3E
:1031F0007D55F9BF411106C6D52601E5B240410112
:103200008280B707009083A787226344F0007D5532
:10321000F5B737D50020130505C831377D55F9BFFF
:10322000BD4763EAA700B7E705200A05938707446F
:10323000AA97884382807D5582800111BA87420611
:1032400036874182BE867C0006CEEF00900F854710
:103250006316F500F240324505618280F240014577
:10326000056182806F00B01582806F00D029B7E7BA
:10327000009083C747F591E38280411106C60D2C6B
:10328000B24041016F00706A6FE08F846FE04F8839
:10329000797106D602C449CDB7E7009022D42A84BA
:1032A00003A587F526D24AD04ECE3289AE89B684A0
:1032B000EF80303B2AC455C9232035012322250144
:1032C00081469DE429462C002285EF10D008AA876C
:1032D000054701456387E704B707009083A7872266
:1032E0006349F006225492540259F249054535A823
:1032F00070002C002285EF1010283247AA8769DB66
:10330000732740F141E7B716031803A7C6FF1367F9
:10331000170023AEE6FE0F00F00F05470145E39DC1
:10332000E7FA225492540259F249B2504561828020
:10333000B707009083A78722E35AF0FAB7E5052084
:1033400037D5002093850548130505C9E93B054598
:10335000E9BF37D50020A285130585CCE9330545A3
:10336000225492540259F249C9B7B707009083A773
:103370008722E359F0F637D50020130585CA653357
:103380000545225492540259F24945B7B71603181D
:103390000A073697854614C30F00F00FBDBF4111D1
:1033A00006C66353A00626C2B7E4009022C483A7D2
:1033B00084F52A84B9C3D0477916631BC5002285DA
:1033C00022449244B2400146914541016F10806C05
:1033D000B707009083A787226348F00022449244F5
:1033E000B24001454101828037D50020A2851305F6
:1033F00005D1153B22449244E5B70905EF80F0154D
:1034000023ACA4F44DFDD9BFB707009083A7872252
:10341000E358F0FC37D500201305C5CD2933C9B7D3
:10342000797122D426D24AD04ECE52CC06D6AA8466
:103430002E8A32849309C1007D5922852286630435
:103440002401BD202A86CE852685EF10503615C969
:10345000B2458041DC4123A0050089C72320FA0042
:1034600023A20500B7E7009003A587F5EF80F01BC6
:103470002285B250225492540259F249624A45615F
:103480008280B7070090B7E5052037D5002083A7D5
:10349000872293858549130585D5E350F0FAEFF02F
:1034A0009FC861BF8146EDB36F20205A6F20E07343
:1034B000B7D6CCCC9386D6CCB337D5028983154604
:1034C0002A877F97C7C6B7D7CCCC3307E540938709
:1034D000C7CC3336E500B307F702FF17D6C633363D
:1034E000D702B2973307D70205831396F701598E97
:1034F000A94585833337B602AA86FF16B6C67F97DD
:10350000B7C43335D500B307E040898FDD8EB336BD
:10351000D0003305D6008280411106C6EF208049D5
:10352000584109C7B2400C4541010287B2404101F0
:10353000828001114EC6AA89314526CA4AC852C4A2
:1035400056C25AC006CE2E8B3289B684BA8A3E8ABB
:10355000A13F29C522CC2A844A85993F37370020CC
:10356000AA85A28626865A8513078751EF10507FB9
:1035700008C015C1232254012324440123A089003B
:1035800001456244F240D2444249B249224A924A39
:10359000024B056182802285113F62440545DDB7FB
:1035A000411122C426C206C6FD572E84AA84638513
:1035B000F5002E85F53D2A848440EF00C07F2A86E1
:1035C0002287268581468545EF206001B24022444E
:1035D0007D1592443335A00041018280411122C4FF
:1035E00006C6FD572E872A846385F5002E85C935CA
:1035F0002A870840814601468D45EF10507EB24033
:1036000022447D153335A00041018280411126C23C
:10361000AA84114506C6493D05C522C40D462A8423
:1036200081450545EF10004708C001C980C001452C
:103630002244B2409244410182802285853D224449
:103640000545C5BF411122C406C6FD572A846385BE
:10365000F5002E85B13DAA850840EF103032B2400A
:1036600022447D153335A0004101828001110841BB
:103670006C0006CE02C6EF10D00385476315F50235
:10368000B24791CFF32740F19DE337170318832703
:10369000C7FF93E71700232EF7FE0F00F00FF2404D
:1036A000014505618280F2403E85056182803717C1
:1036B00003188A07BA9788C30F00F00FCDB70145EA
:1036C0006F006071011122CC4AC806CE26CA4EC6D0
:1036D0002A84EFD0FFBF37E700908327C7F885071C
:1036E0002326F7F837E900908327C9F9D1CFB7E946
:1036F000009083A709F85854A5CFB704019093848C
:10370000C471B7E6009083A706F7850737E60090F7
:1037100023A8F6F67CC0832746F863F4E70023224B
:10372000E6F8D14726857F15F7C493054400EF10CE
:10373000D04DEFD0FFBD83A709F885C78327C9F90E
:10374000D8575C54637FF700F32740F1A9EF371790
:1037500003188327C7FF93E71700232EF7FE0F00F8
:10376000F00FF2406244D2444249B249056182807E
:103770008327C9F9B7040190DC579384C471E362CD
:10378000F7F8232E89F8B5BF232E89F80327C7F849
:1037900085476303F702B70401909384C4715854BA
:1037A000B7E90090B9BF371703188A07BA970547DA
:1037B00098C30F00F00F75B7B70901909384C971D2
:1037C00052C49389C971138A040A4E85D109EF1036
:1037D0003042E31C3AFF370A019013058A70EF105C
:1037E0003041B70901901385496FEF1070403705DC
:1037F00001901305056EEF10B03F370501901305DA
:10380000C56CEF10F03E370501901305856BEF1086
:10381000303E130A8A70B7E7009023AC47F99389CA
:10382000496FB7E7009023AA37F95854B7E90090D9
:10383000224AC1BD011126CAB7E70090B7E4009043
:103840004EC683A987F883A7C4F922CC2A8413859E
:1038500047004AC806CE2E89EF10703FFD5763001F
:10386000F4044E9483A7C4F9C0C363633405B7E777
:10387000009003A587F983A5C4F99105EF10503A8C
:10388000B7E7009003A7C7F66374E40023A687F6A2
:10389000F2406244D2444249B24905618280631CCD
:1038A00009041387F9FF83A7C4F9D8C36381090208
:1038B000B7E7009003A547F9624483A5C4F9F24035
:1038C000D2444249B249910505616F107035B7E79E
:1038D000009003A587F983A5C4F99105EF10503432
:1038E000F2406244B7E70090D2444249B24983A70C
:1038F000C7F60561828083A5C4F96244370501904B
:10390000F240D2444249B24991051305856B0561E5
:103910006F10B02F01114EC69319260022CC52C44D
:103920004E862A8A2E84032508039305500A26CA48
:103930004AC856C25AC0C2843E8B06CEB68A3A895D
:10394000EF308006F1199C58BE9993F989FF51CC4C
:10395000A285930704011388440383C8050023004C
:1039600018018505638508000508E398F5FEA38125
:1039700004049D4763F327013E891385440023A671
:10398000240323A6240523A80404EF10B0271385DD
:103990008401EF103027A147B387274184C8C4D0E2
:1039A00023A4040623AA04049CCC23AC040423AE61
:1039B000040423A0040623A2040623A604062388E5
:1039C00004065686D2854E85EFD03F8C88C06304AE
:1039D0000B0023209B00F2406244D2444249B2498A
:1039E000224A924A024B05618280238A040251B71F
:1039F00001114EC652C4B7090190370A019026CA78
:103A00004AC856C25AC006CE22CC9389C96C130A42
:103A1000CA71B7E4009037E90090854A094B83A743
:103A200004F9ADC3EFD0DF8A83A7C900C0471305EF
:103A30004400EF10D0218327C9F8FD172326F9F899
:103A400083A704F9FD1723A8F4F8EFD07F8C8347F0
:103A5000140785C3638D5705E38367FDB70700909F
:103A600003C70722B7070218A385E7000F00F00F6E
:103A700001A00858EF2060172285EF20001783A7C8
:103A800004F9CDF383270A000547637FF700F32786
:103A900040F195E3371703188327C7FF93E7170013
:103AA000232EF7FE0F00F00FEFD0FFD88DBF228539
:103AB000EF20A013ADB7B71603188A07B69798C3BF
:103AC0000F00F00FD5B7B9C3011122CC06CE428446
:103AD000630308029308400746C632436303130595
:103AE000B707009003C70722B7070218A385E700AE
:103AF0000F00F00F01A0B707009003C70722B70718
:103B00000218A385E7000F00F00F01A0B70700908F
:103B100003C70722B7070218A385E7000F00F00FBD
:103B200001A08948A30818072328F802B2483C00DE
:103B3000D5332285EFF01FB9F2406244224505617A
:103B4000828079714ECEAA891315260026D252CCD6
:103B500056CA5AC85EC606D6B2842E8AB68A3A8B30
:103B6000BE8BEF10906E31C922D42A841305400712
:103B70004AD0EF10906D2A8905CD00D92A88A30874
:103B80000506DE875A87D6862686D2854E85EFF0D3
:103B90007FD84A85EFF01FB3054522540259B25031
:103BA0009254F249624AD24A424BB24B45618280FA
:103BB0002285EF208003225402597D55CDB7411153
:103BC00022C42A844AC006C626C237E90090EFD034
:103BD0002FF079C0930444002685EF1050071C5441
:103BE00089C713058401EF10900637E700908327FB
:103BF00007F785072328F7F68327C9F9638F870618
:103C000037E700908327C7F8FD172326F7F8834787
:103C1000140795C30547638DE70A09476383E702E5
:103C2000B707009003C70722B7070218A385E7006C
:103C30000F00F00F01A00858EF10307B2285EF1025
:103C4000D07AB7E7009003A787F9184329EBB7E7C5
:103C500000907D5723A6E7F6EFD08FEBB7E70090F3
:103C600083A707F889C78327C9F963838704B2400C
:103C70002244924402494101828037050190130594
:103C8000C56CA685EF10607837E70090832707F9A9
:103C900085072328F7F8C9B70324C9F925BF83A7E7
:103CA00087F9DC479843B7E7009023A6E7F66DB79E
:103CB000B7E7009083A747F685C3B707009003C70F
:103CC0000722B7070218A385E7000F00F00F01A035
:103CD0002285EF109071B5B7F32740F181EF3717C8
:103CE00003188327C7FF93E71700232EF7FE0F0063
:103CF000F00FB5BF371703188A07BA97054798C35F
:103D00000F00F00FADB7011170002C00480006CE77
:103D100002C202C4EFD05FB3B7D500203745002000
:103D2000A24712483246938545D71305059F0147A0
:103D30008146EFF05FD9B7E7009023A4A7F629CD1D
:103D4000EF10A07B85476300F502FD576316F5046D
:103D5000B707009003C70722B7070218A385E7003B
:103D60000F00F00F01A0B707009003C70722B707A5
:103D70000218A385E7000F00F00FB7E700907D570A
:103D800023A6E7F6B7E7009023A0A7F8B7E70090CF
:103D900023A407F8EFD0FF91F240B7C7002083A714
:103DA000C7280561828037E70090832747F685079B
:103DB0002322F7F68280411106C622C4EFD04FD1EC
:103DC000B7E7009003A487F8EFD08FD42285B240E4
:103DD00022444101828001C5130545038280B7E773
:103DE000009003A5C7F96DF9B707009003C7072234
:103DF000B7070218A385E7000F00F00F01A0797143
:103E0000B7E7009006D656CA83A747F6CDEFB7E7C7
:103E100000904AD003A987F8050966C223A427F9B0
:103E20006300090C4ECE5EC6B7EC009083A7CCF6BB
:103E30006369F90C52CC37EA009083278AF99C43D6
:103E400063820716B70901905AC862C422D426D2E9
:103E50009389C971814AB7EB009037EB0090514CC0
:103E600089A0EF10C05E1C541305840199C3EF10A4
:103E7000005E5C544E8503274BF87F9587C5A68569
:103E80006374F7002322FBF8EF10205883A7CBF9C7
:103E9000DC5758546363F700854A83278AF99C43AB
:103EA000E5C383278AF9DC47C047930444005C409C
:103EB0002685E378F9FA23A6FCF622549254624A46
:103EC000424B224CB1A037E700908327C7F7850704
:103ED000814AB250232EF7F65685D24A4561828038
:103EE000B7E7009003A787F9184331CFB7070090D1
:103EF00003C70722B7070218A385E7000F00F00FDA
:103F000001A0B70901909389C971814AB7EB00906C
:103F100083A7CBF9D857D147FF19F7C4854703A723
:103F2000090063F3E700BE8AB7E7009083A787F72D
:103F300091C3854AB2500259F249B24B924C568510
:103F4000D24A4561828037E7009083A687F903262D
:103F500047F923ACC7F8232AD7F8B7E6009003A7A0
:103F600046F7050723AAE6F603A787F94ECE5EC6F5
:103F7000184305E3B7EC0090FD5723A6FCF67DB58A
:103F800022549254424B224CFD5723A6FCF6624A1F
:103F900041B783A787F9DC479C43B7EC009023A681
:103FA000FCF669B5B70901909389C971814AB7EBED
:103FB0000090D9BF797106D622D4EFD06FB1B7E7A0
:103FC000009003A747F67D1723A2E7F683A747F6DD
:103FD00063960710B7E7009083A7C7F863800710C0
:103FE0004AD0370901901309096E5EC626D283278D
:103FF0000900B7EB0090D1C752CC370A01904ECEE2
:1040000056CA5AC862C4130ACA71B7E9009037EB9E
:104010000090B7EB0090D14A054C8327C900C047F8
:1040200013058401EF10A042930444002685EF108D
:1040300000425C54528503A749F87F9557C5A68571
:104040006374F70023A2F9F8EF10203C8327CBF923
:10405000DC5758546364F70023AC8BF783270900BF
:10406000CDFFB7E7009003A787F9184341E3B7E70F
:1040700000907D5723A6E7F6F249624AD24A424BA6
:10408000224C37E900900324C9F719C88544EFF0A2
:104090001FD77D1419C123AC9BF675F8232E09F6A2
:1040A00083A78BF78DCBF32740F1A1EB37170318CC
:1040B0008327C7FF93E71700232EF7FE0F00F00FAB
:1040C000054492540259B24BEFD08FA42285B250CE
:1040D00022544561828092540259B24BEFD04FA3D3
:1040E00001442285B25022544561828083A787F91A
:1040F000DC479843B7E70090B5BF371703188A0726
:10410000BA97054798C35DBFB7E7009083A747F606
:1041100081EFB707009003C70722B7070218A385EE
:10412000E7000F00F00F01A071B509EDF32740F192
:104130008DCF371703188A07BA97054798C30F0022
:10414000F00F8280411122C437E4009006C6832715
:1041500044F69DC7B707009003C70722B7070218A8
:10416000A385E7000F00F00F01A03717031883277E
:10417000C7FF93E71700232EF7FE0F00F00F828092
:10418000832744F685072322F4F68145EFF08FEA72
:10419000832744F681EFB707009003C70722B707CC
:1041A0000218A385E7000F00F00F01A0EFF09FE0D9
:1041B00011EDF32740F199EF371703188327C7FF55
:1041C00093E71700232EF7FE0F00F00FB2402244B2
:1041D00041018280371703188A07BA97054798C3A9
:1041E0000F00F00FE5B7B7E7009083A747F699C730
:1041F000B7E70090054723ACE7F68280B7E7009069
:1042000023AC07F6B7E7009003A787F8B7E700905D
:10421000411123AEE7F437E7009022C406C683A617
:10422000C7F5032607F637E40090637AD60003A5A6
:10423000C7F58325C4F9B455918EAA96B4D503A6C3
:10424000C7F58326C4F98327C4F92320C7F69C5BEE
:10425000984263F7E706B7060190B7E500909386AA
:10426000C67183A745F8514636877F97C7C4184360
:1042700001EB85CFFD1736877F97C7C4184375DBE1
:1042800051473387E7023385E6005041504221070A
:1042900050C1BA96630FD6025846232EE4F8B240B6
:1042A000224423A2F5F841018280B707009003C79A
:1042B0000722B7070218A385E7000F00F00F01A03F
:1042C0000325C4F98325C4F993854503EFD00FD79F
:1042D00059B7504250C1C9B71DC14111B7E700904D
:1042E00022C42E8483A5C7F9E10506C6EF1040134A
:1042F00022852244B240854541016FF0AFD3B70714
:10430000009003C70722B7070218A385E7000F0034
:10431000F00F01A005C94111B7E7009026C2AE8495
:1043200083A5C7F922C4E105328406C6EF10E00D6B
:1043300011C0FD54A2852244B24026859244410119
:104340006FF04FCFB707009003C70722B7070218D7
:10435000A385E7000F00F00F01A041115C4522C4C6
:1043600006C626C2C04735CC930484012685EF10CB
:10437000000EB7E7009083A747F69DCB3705019065
:104380001305056EA685EF104008B7E7009083A7D8
:10439000C7F9DC575854014563F7E700B7E70090C9
:1043A000054523ACA7F6B2402244924441018280E5
:1043B000930444002685EF10800937E700905C5491
:1043C000832647F863F4F6002322F7F837050190B7
:1043D00051471305C5717F95E7C4A685EF10E0022C
:1043E0006DB7B707009003C70722B7070218A38568
:1043F000E7000F00F00F01A037E70090B7E700904B
:10440000032747F783A787F818C15CC182803DC1A5
:10441000411126C206C622C4AE84B1C12A84EFC0AF
:104420003FEB37E700909C40832687F87D56638BEF
:10443000C706B7E5009003A545F7032804005040E0
:104440006305A80463E3C60423A004000544EFC089
:104450003FEC2285B2402244924441018280B7075A
:10446000009003C70722B7070218A385E7000F00D3
:10447000F00F01A0B707009003C70722B707021883
:10448000A385E7000F00F00F01A03385C640E37D50
:10449000F5FA958FB2979CC083A645F7832787F8D6
:1044A00014C05CC0014465B7B7E70090054723AC72
:1044B000E7F68280B7E7009083A707F8054581CB30
:1044C000B7E7009003A547F613351500060582806F
:1044D0002DC5011126CAB7E4009083A7C4F922CCE8
:1044E000D85706CE5C552A8463FEE7024AC8184DA9
:1044F0006348070003A7C4F954572147158F18CD07
:10450000370901901309C971D1464A877F97D7C4EB
:104510005C486386E70283A7C4F9DC575CD4054591
:10452000424939A083A7C4F9DC5768453335F50003
:10453000F2406244D24405618280014582804EC6C9
:10454000930944004E85EF00907083A7C4F9DC57AF
:1045500037E700905CD4832647F863F4F600232203
:10456000F7F851474A857F95E7C4CE85EF00F0699B
:10457000B24975B731CD4111B7E7009022C406C6E4
:1045800003A4C7F9630DA400B707009003C707226F
:10459000B7070218A385E7000F00F00F01A03C4801
:1045A00089CFFD173CC8545478446383E6009DC30B
:1045B0000145B240224441018280B707009003C701
:1045C0000722B7070218A385E7000F00F00F01A02C
:1045D0000145828026C2930444002685EF0030679F
:1045E0007C4421471D8FB7E6009018CC5CD403A70C
:1045F00046F86374F70023A2F6F837050190514797
:104600001305C5717F95E7C4A685EF0010600545C9
:10461000924445B725CD411122C406C63C492A849F
:1046200081EFB707009003C70722B7070218A385D9
:10463000E7000F00F00F01A07845636CB7005454F9
:104640006385E60005466388C700B2402244410105
:1046500082802E87EDB7B7E7009083A7C7F9638301
:10466000870626C258D41C4C63C50700A147998F02
:104670001CCCB70401909384C4715147A687FF975F
:10468000E6C458486305F7009244C1B782804AC027
:10469000130944004A85EF00905B37E700905C54B3
:1046A000832647F863F4F6002322F7F8268551475E
:1046B00022447F95E7C49244B240CA850249410131
:1046C0006F00B054B707009003C70722B70702185E
:1046D000A385E7000F00F00F01A0B7E7009003A744
:1046E000C7F911C783A6C7F9B84A0507B8CA03A511
:1046F000C7F98280411122C426C206C6045D3C412E
:104700002A8499EB1C4185040145A5CF04DCB24005
:1047100022449244410182804AC032893E86631716
:1047200009024841EF2000335C403840BA975CC032
:104730001844850463E4E7001C405CC00249B240B1
:1047400004DC224492440145410182804845EF2027
:10475000603038405C44998F5CC414403307E040BB
:1047600063F5D7001C44BA975CC489476301F9021A
:1047700085040249B24004DC2244924401454101CF
:1047800082800844EFF01FDF2324040041B7DDF4EA
:1047900085446DB7011122CC06CE20452AC61DC81E
:1047A000185C5C5C637DF70026CA185C8144636E0C
:1047B000F702F24062442685D24405618280B70741
:1047C000009003C70722B7070218A385E7000F0070
:1047D000F00F01A0B707009003C70722B707021820
:1047E000A385E7000F00F00F01A04AC80349540455
:1047F00001466C002285FD3D620913598941FD5730
:10480000AA84630EF9009307F0076306F902930781
:104810001900E207E187A302F404424959BF5C5042
:1048200099E3424979B713054402EFF01FB375D9F4
:1048300085444249BDBFB707009003C70722B707A9
:104840000218A385E7000F00F00F01A0411122C458
:1048500026C206C6AA844AC0EFC09FA783C75404D5
:10486000139487016184635280041389440219A858
:10487000153715E19307F4FF1394870113F7F70F2A
:10488000618405C7BC442685E5F7DC504A8591CF95
:10489000EFF0BFAC65D1EFF03FC19307F4FF139485
:1048A000870113F7F70F618471FFFD57A382F404AA
:1048B000EFC01FA6EFC0DFA183C744041394870194
:1048C0006184635D80021389040109A89307F4FFE2
:1048D0001394870113F7F70F61840DC39C484A8531
:1048E00091CFEFF09FA77DD1EFF01FBC9307F4FFAE
:1048F0001394870113F7F70F61846DF3FD5723823B
:10490000F4042244B2409244024941016FC05FA0C6
:1049100039C5411122C426C22A8406C6AE84EFC01E
:104920003F9B38405C5CB307F70214403387E74095
:10493000232C04027D563697B6972302C40458C42C
:104940001CC454C0A302C40495E41C48A1E7EFC0F2
:104950003F9CB24022449244054541018280B70702
:10496000009003C70722B7070218A385E7000F00CE
:10497000F00F01A013050401EF0090271305440276
:10498000EF001027EFC0DF98B24022449244054563
:104990004101828013050401EFF03F9C4DD9F327BC
:1049A00040F181EF371703188327C7FF93E71700FC
:1049B000232EF7FE0F00F00F59BF371703188A0791
:1049C000BA97054798C30F00F00F51B701EDB7072D
:1049D000009003C70722B7070218A385E7000F005E
:1049E000F00F01A095C6797106D641C28DCD93070F
:1049F00040053ECE72486303F804B707009003C732
:104A00000722B7070218A385E7000F00F00F01A0E7
:104A1000B707009003C70722B7070218A385E7006E
:104A20000F00F00F01A0B707009003C70722B707D8
:104A30000218A385E7000F00F00F01A0F247854799
:104A4000C8DEACC22383F60490C23685BE853AC662
:104A500036C4EFF0FFEBA24632472388E604B2509B
:104A600023A4060436854561828091E993074005B9
:104A70003ECE7246E313F6F8F2473686C9B7B7075B
:104A8000009003C70722B7070218A385E7000F00AD
:104A9000F00F01A001EDB707009003C70722B70789
:104AA0000218A385E7000F00F00F01A0011122CC2E
:104AB0004EC806CE4ACA2A84B289A1E11305400530
:104AC0002EC6EF0090782DC9230305042A89B2452C
:104AD0002320A9002320B904232E890285454A8575
:104AE000EFF01FE32308390523240904F240624450
:104AF0004A85C249524905618280B337B502330500
:104B0000B50285E39307B0FA63FAA702B7070090EE
:104B100003C70722B7070218A385E7000F00F00FAD
:104B200001A0B707009003C70722B7070218A385A3
:104B3000E7000F00F00F01A001494DBF1305450527
:104B40002EC6EF0090702A89B2457DD52303050457
:104B500013054505B5BF397106DE32C66308051277
:104B600022DC4AD84ED62A84AE893689638E050E59
:104B700089476311F902585C8547630DF700B70751
:104B8000009003C70722B7070218A385E7000F00AC
:104B9000F00F01A0EFF01F92630E051026DAEFC0B0
:104BA0002FF3185C5C5C6368F7128947630EF91495
:104BB00052D456D25AD08147130A8101FD54930A28
:104BC000C100130B040139A8EFC08FF42285EFF068
:104BD000FFC7EFF06FD3EFC0AFEF145C585C8547B1
:104BE00063E8E60E3247630C0714C9CFEFC04FF2FB
:104BF000EFF06F9BEFC0CFED83474404E207E187FE
:104C0000639497002302040483475404E207E18776
:104C100063949700A3020404EFC08FEFD6855285FA
:104C2000EFF0EFFE63140512EFC08FEA185C5C5CD6
:104C3000E31CF7F8EFC0CFEDB2455A85EFF0CFE9AE
:104C40002285EFF0BFC0EFF02FCC51F5F32740F1F4
:104C5000A9EB371703188327C7FF93E71700232E05
:104C6000F7FE0F00F00F85BF3C41E38307F0B70765
:104C7000009003C70722B7070218A385E7000F00BB
:104C8000F00F01A05285EFF02FF78DB7B707009016
:104C900003C70722B7070218A385E7000F00F00F2C
:104CA00001A0371703188A07BA97054798C30F0062
:104CB000F00F15B7B247E38307EEB707009003C7BD
:104CC0000722B7070218A385E7000F00F00F01A025
:104CD000225A925A025B4A86CE852285045CEFF006
:104CE0007FA13C4495CB89476309F9042285EFF005
:104CF0007FAA15E5EFC0CFE105456254F250D254CA
:104D00004259B259216182804A86CE852285045C4F
:104D1000EFF05F9E3C4495E35C50A1EB61DDF3272F
:104D200040F19DEB371703188327C7FF93E7170060
:104D3000232EF7FE0F00F00F75BFCDFC45BFEFC06F
:104D40002FDD0145225A925A025B45BF2285EFF0C2
:104D5000FFAFEFF06FBBF5B7371703188A07BA97A5
:104D6000054798C30F00F00F71B713054402EFF029
:104D7000CFDE49D16DB76DC1011122CC26CA4AC818
:104D80005AC006CE2A842E8B3289B684A5CD894797
:104D90006391F402585C8547630DF700B7070090F4
:104DA00003C70722B7070218A385E7000F00F00F1B
:104DB00001A052C456C2EFC09F9FB7070218370A1E
:104DC000009083C6B70003470A2293FAF60FA38523
:104DD000E7000F00F00F185C5C5C6362F704894722
:104DE0000145638EF402B7070218A38557010F002F
:104DF000F00FF2406244224A924AD2444249024BA6
:104E0000056182803C41C1D7B707009003C70722E4
:104E1000B7070218A385E7000F00F00F01A04EC6E8
:104E200083495404DA8526862285E209032B84030C
:104E3000EFF05F8C93D98941FD57638AF90293079C
:104E4000F0076387F90493871900E207E187A3025B
:104E5000F4040545B24941BFB707009003C70722D4
:104E6000B7070218A385E7000F00F00F01A03C442C
:104E70008DCB89476394F400E31D0BFC2285EFF092
:104E80007F9161D9E30709FC85472320F900D1B759
:104E900003470A22B7070218A385E7000F00F00FA7
:104EA00001A05C50DDD713054402EFF00FCB79F978
:104EB0004DB741C13C4181CFB707009003C70722DE
:104EC000B7070218A385E7000F00F00F01A001113A
:104ED00026CC06CE4ACA1C41AE84BDC72AC6EFC046
:104EE0001F8DB70602183706009083C7B600034728
:104EF000062213F9F70FA385E6000F00F00F3245E5
:104F00001C5D585D63FFE70403475504850762078E
:104F10001CDD6187FD576302F7069307F0076308FE
:104F2000F70693071700E207E187A302F50405459A
:104F300015A8B707009003C70722B7070218A38573
:104F4000E7000F00F00F01A01C45C9DBB707009078
:104F500003C70722B7070218A385E7000F00F00F69
:104F600001A00145B7070218A38527010F00F00F24
:104F7000F240E2445249056182803C4585C3EFF02E
:104F80007F8155D5CDD485479CC00545E1BF83477A
:104F90000622A385F6000F00F00F01A05C51C1DBD3
:104FA00013054502EFF06FBB71FD054565BF397113
:104FB00006DE32C6630B051222DC52D42A842E8A06
:104FC000C5C5EFF02FCF55CD4AD8EFC06FB003293C
:104FD00084036313091426DA4ED656D2B247ADCBFA
:104FE000930981014E85EFF02FC1930AC100FD5452
:104FF000EFC00FB2EFE03FDBEFC08FAD834744045B
:10500000E207E18763949700230204048347540472
:10501000E207E18763949700A3020404EFC04FAF57
:10502000D6854E85EFF0AFBE35E9EFC06FAA1C5CA8
:10503000D1C3EFC0EFAD2285EFF05F81EFF0CF8CF1
:10504000EFC00FA9032984036315090CB247CDF300
:10505000EFC00FAC0145D254B259925A6254F2508B
:105060004259225A216182803C41A1DFB70700905A
:1050700003C70722B7070218A385E7000F00F00F48
:1050800001A0B247B1D3B707009003C70722B70703
:105090000218A385E7000F00F00F01A02285EFF0B2
:1050A000EFFAEFF06F86EFC0AFA21C5CD5D3EFC074
:1050B0002FA679B7EFC0CFA5B24513054402EFF094
:1050C000AFA12285EFF08FF8EFF00F8435F9F327C9
:1050D00040F19DE7371703188327C7FF93E71700B1
:1050E000232EF7FE0F00F00FA1BFB707009003C7F4
:1050F0000722B7070218A385E7000F00F00F01A0F1
:10510000371703188A07BA97054798C30F00F00F9F
:1051100005BFD254B259925A304001CE4C44B29598
:105120004CC41C4463E4F5000C404CC45285EF10A1
:1051300070127D19232C24031C4889E7EFC04F9D72
:10514000054529BF13050401EFF02FA165D9F32709
:1051500040F181EF371703188327C7FF93E7170044
:10516000232EF7FE0F00F00FD1BF371703188A0761
:10517000BA97054798C30F00F00FC9B7397106DE1B
:1051800022DC26DA4AD84ED652D456D22EC649CD83
:105190003C412A8481CFB707009003C70722B70795
:1051A0000218A385E7000F00F00F01A0EFF08FB009
:1051B000AA8451C5814A8144930981017D59130A0A
:1051C000C100EFC0EF901C5C63940716B247638484
:1051D0000714D5C8EFC0CF93EFE0FFBCEFC04F8FEF
:1051E00083474404E207E187639427012302040410
:1051F00083475404E207E18763942701A302040470
:10520000EFC00F91D2854E85EFF06FA031E5EFC072
:105210002F8C1C5CC9C3EFC0AF8F2285EFF00FE36A
:10522000EFE09FEE854471BFB707009003C70722E8
:10523000B7070218A385E7000F00F00F01A0B247DF
:10524000C9CBB707009003C70722B7070218A38589
:10525000E7000F00F00F01A02285EFF02FDFEFE055
:10526000BFEAEFC0EF861C5C9DE3EFC06F8A6394DA
:105270000A060145F2506254D2544259B259225A98
:10528000925A216182804E85EFF00F97A1B7EFC04F
:105290002F8885443DB7EFC0AF871C40A5C7B245F6
:1052A00013054402EFF04F832285EFF02FDAEFE091
:1052B000BFE52DF9F32740F18DEF3717031883274A
:1052C000C7FF93E71700232EF7FE0F00F00F85446A
:1052D000CDBD814AD5B5EFB0BFFF4C5089C51C5834
:1052E0009C43A1459D8D0844EFF0CFB2EFC04F82A3
:1052F00049B7371703188A07BA97054798C30F00AD
:10530000F00FF1B7EFB0DFFC0844EFF06F9CAA8A12
:10531000EFC00F8069B7E38B0AFCB707009003C7A3
:105320000722B7070218A385E7000F00F00F01A0BE
:10533000FD171CDC1C4099C71C4889EBEFB05FFDD2
:1053400005450DBFEFF06FB908C4FDB713050401A3
:10535000EFF0AF8065D5F32740F181EF37170318E1
:105360008327C7FF93E71700232EF7FE0F00F00FE8
:10537000F1B7371703188A07BA97054798C30F0084
:10538000F00F6DBF411122C426C24AC02A8406C64E
:10539000AE843289EFB0DFF383474404E207E1874C
:1053A0007D576394E7002302040483475404E20713
:1053B000E1877D576394E700A3020404EFB05FF533
:1053C0001C5C89CB22852244B240924402494101AF
:1053D0006FF0CFC7130544024A86A685EFE09FF31E
:1053E00022852244B2409244024941016FF00FC627
:1053F000930785007D575CC15CC51CC9232005004F
:1054000018C582802328050082805C41984798C592
:10541000DCC14CC38CC71C41850788C91CC1828074
:1054200090417D57930785006300E602BE86DC430A
:105430009843E37DE6FEDCC18CC794C51C41CCC219
:10544000850788C91CC182801449DC42EDB75441EC
:1054500018451C4998C654C3D4436389A600984391
:105460007D172328050098C388438280D8C39843BA
:105470007D172328050098C388438280411122C4E8
:1054800006C637E40090EFB0BFE4832784FA91C7E3
:105490002244B24041016FB0BFE74AC037190190C2
:1054A0001305499126C2EFF0BFF4B714019013859C
:1054B0000490EFF0FFF3B70601903716019013093F
:1054C00049919384049037E80090B7E70090938661
:1054D000C67B130606810147C1453D45232828FBAD
:1054E00023A697FAEFF08FCE2324A4FA2244924405
:1054F0000249B24041016FB0BFE1011106CEEFF0A9
:10550000FFF7B7E7009083A787FAA1C370002C00CC
:10551000480002C202C4EFC06FB4B7D500203755AF
:105520000020A24712483246938505D81305856F9F
:105530001D478146EFE02FD9B7E7009023A2A7FAD5
:1055400009C5F240054505618280B707009003C791
:105550000722B7070218A385E7000F00F00F01A08C
:10556000011156C2AA8A1305C00222CC26CA4AC813
:105570004EC652C406CEAE843289368ABA89F1212B
:105580002A840DC923040502A1C0EFF03FEF1305E3
:1055900044002320540104CC232E4401232034034F
:1055A000EFF05FE6630809008347840293E7470052
:1055B0002304F4022285F2406244D2444249B249B3
:1055C000224A924A05618280B707009003C70722EA
:1055D000B7070218A385E7000F00F00F01A029C547
:1055E000011122CC37E4009006CE832884FAAA87E2
:1055F0000145638708023EC42EC032C2954763C08E
:10560000B70426CABA84EFE0FFEA894781466302FD
:10561000F50401468A85032584FAEFF0CFD3D244FE
:10562000F240624405618280B707009003C70722F9
:10563000B7070218A385E7000F00F00F01A0368618
:105640008A8581464685EFF00FF3F240624405619A
:10565000828026868A85032584FAEFF0CFCFD24454
:10566000C1B701114AC806CE22CC26CA4EC637E9B8
:1056700000900DA0DC47C04793044400268583A911
:105680000700EFF0DFDC1C502285829783478402FD
:10569000918B85E7832709FB984369FF37E70090E3
:1056A0008326C7FA2328D9FAF24062442326F7FA60
:1056B000D2444249B249056182801C4CCE970147D1
:1056C00081464E868145228563FAF9005CC000C898
:1056D000032509FBA685EFF0BFD46DBFEFF03FF0C7
:1056E00055F9B707009003C70722B7070218A3852B
:1056F000E7000F00F00F01A05D7152DC37EA0520D2
:10570000A2C4A6C2CAC04EDE56DA5AD85ED686C633
:1057100062D466D26AD06ECE130A8A4AB7E9009084
:1057200037E90090B7EB009037E400908A84371B8C
:105730000318A54A83A709FB03AD0700630F0D14E7
:10574000DC4703AD0700EFE00FE6EFE0CFE683278D
:1057500009FAAA8C6364F5162320A9FA014663703E
:10576000A519B3059D41032584FAEFF0BFC1EFE011
:10577000BF9909EDF32740F1639C07148327CBFF02
:1057800093E71700232EFBFE0F00F00F0146A685BE
:10579000032584FAEFF0BF8151DD8247224563C7BC
:1057A000070EA24C83A74C0189C713854C00EFF06C
:1057B0001FCAEFE04FE0832709FA2A8D6367F510CF
:1057C0002320A9FB8247E3E3FAFC8A07D2979C4394
:1057D0008287924783C68C0203A68C0193E616004B
:1057E0003387C7002384DC0223A2EC0023A89C019A
:1057F000B336F700636EED10330DFD40636DCD14CD
:1058000083A70C026685829783C78C02918BBDDFCC
:10581000124683A78C013E960147814681456685E5
:10582000EFF0FFDB25F5B707009003C70722B707A6
:105830000218A385E7000F00F00F01A003C78C0238
:105840001367170092472384EC0223ACFC006382A9
:105850000714EA9723A2FC0023A89C0193854C001F
:105860006363FD0C03A5CBFAEFF09FBB05B783C7BD
:105870008C02F99B2384FC0211BF83C78C0213F7AF
:1058800027005DC7F99B2384FC0209B79247B24504
:1058900082978247E3CC07EE29B7EFE0CFD0EFE065
:1058A0008FD1832709FAAA8C636AF50083A7CBFA04
:1058B000904313361600232099FB65B5EFF07FDA8D
:1058C000232099FBEFE05F84D1B5EFF09FD9CDBDE8
:1058D0008A07DA97054798C30F00F00F45BDEFE040
:1058E000BF8283A709FBDC4703ACC700930D4C00C4
:1058F0006E85EFF0DFB503478C029376470085EEA7
:10590000799B2304EC0203270C0262850297BDBD3C
:105910006374FD00E38606EE93854C0003A509FB46
:10592000EFF01FB0A5B503A509FBEFF07FAFB9BD40
:105930006685652CA1BD83268C013307DD002322FB
:10594000EC0023288C0163FFEC00EE8503A509FB26
:10595000EFF01FAD4DBF93854C0003A5CBFAEFF0E0
:105960003FAC2DB5B38CAC4163E0DC04014781460C
:105970006A8681456285EFF09FC651F5B7070090B2
:1059800003C70722B7070218A385E7000F00F00F2F
:1059900001A0B707009003C70722B7070218A38525
:1059A000E7000F00F00F01A0EE8503A5CBFAEFF0A2
:1059B0003FA791BF19CD411122C42A8406C6EFB07A
:1059C0003F91404CEFB0DF942285B2402244410128
:1059D0008280B707009003C70722B7070218A38584
:1059E000E7000F00F00F01A0B7E700909387C7FC16
:1059F0003E879C43E3EEA7FE5043B305C7005441E6
:105A00006307B5023306D5006387C7001CC1630373
:105A1000A70008C3828037E60090032686FCE38750
:105A2000C7FED043B2969C431CC154C1CDB7B296B9
:105A300054C33306D700E39FC7FC37E60090032624
:105A400086FC3A85E39FC7FC8280011122CC06CEFA
:105A500026CA4AC82A84EFE00FB5B7E5009083A7AD
:105A600085FC63890710B7E7009083A447FBB377F1
:105A70009400C1E79307F4FF59576360F708137761
:105A80007400930784002DE74EC652C437EA009095
:105A900083294AFC63E0F91437E600900324C6FC2E
:105AA0001306C6FC29A0184011C722863A84544028
:105AB000E3EBF6FE03A785FC630E87100C40032979
:105AC00006003387F6400CC2414621096378E6049C
:105AD0003305F400937675008DCEB707009003C7A9
:105AE0000722B7070218A385E7000F00F00F01A0F7
:105AF00013F787FF210763E8E706EFE0EFE0EFB079
:105B00007FD70149F24062444A85D2444249056147
